:100000000C9460000C94DC100C9403110C94880088
:100010000C9488000C9488000C943A110C9488007D
:100020000C9488000C945A110C9488000C9488004D
:100030000C9488000C9488000C9488000C94880020
:100040000C944C060C9488000C94B9040C94EB04AA
:100050000C9488000C9488000C9488000C94880000
:100060000C9488000C948800000000080002010035
:100070000003040700000000000000000102040863
:100080001020408001020408102001020408102002
:10009000040404040404040402020202020203032E
:1000A0000303030300000000250028002B000000CC
:1000B0000000240027002A0053021B05340C8A0E7E
:1000C00011241FBECFEFD8E0DEBFCDBF11E0A0E00E
:1000D000B1E0EEE6F7E202C005900D92A835B10757
:1000E000D9F723E0A8E5B1E001C01D92A635B2071B
:1000F000E1F710E0C0E6D0E004C02197FE010E94C5
:100100009913CC35D107C9F70E9449050C94B51352
:100110000C9400000F931F93CF93DF9300D0CDB7C3
:10012000DEB761E084E00E946F0760E084E00E9437
:10013000AB0726E040E056E960E070E083E192E042
:100140000E94590488E093E00E94350E40EC6EE373
:100150008BEF92E00E94EA0780910001882329F04A
:10016000809101019091020102C080E090E00E9424
:100170009A0C83E08A83BE016E5F7F4F80910701F6
:10018000909108010E94A80C06E010E061E084E074
:100190000E94AB0762E370E080E090E00E94C70637
:1001A00060E084E00E94AB0762EC71E080E090E0E8
:1001B0000E94C7060150110949F7809100018B3058
:1001C00028F0809115019091160102C080E090E026
:1001D0000E949A0C809100018C3028F080911701C8
:1001E0009091180102C080E090E00E949A0C8091EA
:1001F00000018D3028F08091190190911A0102C000
:1002000080E090E00E949A0C809100018E3028F0EE
:1002100080911B0190911C0102C080E090E00E943F
:100220009A0C82E08983BE016F5F7F4F8091070146
:10023000909108010E94A80C0F900F90DF91CF9130
:100240001F910F91089588E093E00E94AF0D68EE32
:1002500073E080E090E00E94C706809100018C303E
:1002600028F0809117019091180102C080E090E081
:100270000C949A0CE82FF0E0EE0FFF1FEF5FFE4F9B
:100280000190F081E02D0580F681E02DDB018C915D
:100290008083089583E891E00C94D20CCF92DF9292
:1002A000EF92FF920F93CF93DF93CDB7DEB7C05598
:1002B000D1090FB6F894DEBF0FBECDBF7B0180E938
:1002C000C82E81E0D82E01E0F6012781AB016481C0
:1002D000CE0101960E946810CE0101960E94920FF5
:1002E000B701C6010E94D20CF6018781E80EF11C0D
:1002F000F701319760818BEF92E00E948708C05B25
:10030000DF4F0FB6F894DEBF0FBECDBFDF91CF91A8
:100310000F91FF90EF90DF90CF900895EF92FF92B2
:100320000F93CF93DF93CDB7DEB7C055D1090FB68A
:10033000F894DEBF0FBECDBFE091A201F091A30102
:10034000DB019C918081981305C011969C9181815D
:100350009817A1F07B0101E02091A401AB0160910D
:10036000A101CE0101960E946810CE0101960E9463
:10037000920FB7018BEF92E00E948208C05BDF4FC3
:100380000FB6F894DEBF0FBECDBFDF91CF910F91B6
:10039000FF90EF900895CF93C82F8AEF92E00E94CC
:1003A000120CEC2FF0E0EE0FFF1FEF5FFE4FA0816D
:1003B000B18115960D90BC91A02DAC015C9301907C
:1003C000F081E02D0580F681E02D8183CF910895A5
:1003D000EF92FF920F93CF93DF93CDB7DEB7C05567
:1003E000D1090FB6F894DEBF0FBECDBFE091D701A3
:1003F000F091D801DB019C9180819817A9F07B01D5
:1004000001E02091D901AB016091D601CE010196A6
:100410000E946810CE0101960E94920FF701608140
:100420008BEF92E00E949508C05BDF4F0FB6F89407
:10043000DEBF0FBECDBFDF91CF910F91FF90EF9048
:100440000895E82FF0E0EE0FFF1FEF5FFE4F0190E1
:10045000F081E02D0580F681E02DDB018C91808319
:1004600080917301811102C060E001C061E084E00D
:100470000C94AB07FB01808180930D038081811177
:1004800011C080910001843028F080910701909183
:10049000080102C080E090E00E94750C8AEF92E0B3
:1004A0000C94890B0895E6E0F2E011821082138229
:1004B000128290910703948325E231E036832583ED
:1004C00088E0878381E080872FEF3FEF32872187A5
:1004D00014861386E9EFF1E01182108213821282F2
:1004E00041E0490F448341E251E05683458344E0B3
:1004F000478380873287218714861386ECEEF1E0EC
:10050000118210821382128252E0590F54836DE1DE
:1005100071E07683658347838087328721871486DD
:100520001386EFEDF1E0118210824AE352E053832B
:10053000428343E0490F44834DE053E056834583B3
:10054000878380873287218714861386E2EDF1E066
:100550001182108248EE51E05383428344E0490FF8
:10056000448340E053E05683458387831086128698
:10057000118614861386E5ECF1E011821082138255
:10058000128245E0490F44834BE053E05683458394
:10059000878380873287218714861386E7EBF1E013
:1005A000118210821382128246E0490F448344EC88
:1005B00051E056834583878380873287218714865D
:1005C0001386EAEAF1E0118210821382128247E078
:1005D000490F44834CE053E05683458387838087EB
:1005E0003287218714861386EDE9F1E011821082AB
:1005F0004EE851E05383428348E0490F448341E091
:1006000053E05683458342E04783808762E070E091
:100610007287618714861386E0E9F1E01182108207
:100620006EE471E07383628359E0590F54836AE08A
:1006300073E0768365838783108665E070E0728758
:10064000618714861386E3E8F1E0118210826AE480
:1006500071E0738362835AE0590F54836EE073E054
:10066000768365834783108666E070E072876187D2
:1006700014861386E4E7F1E06BEC71E0718360832C
:10068000138212825BE0590F548361E871E0768334
:100690006583478380873287218714861386E6E641
:1006A000F1E01182108241E252E0538342834CE038
:1006B000490F448343E751E056834583878380870E
:1006C0003287218714861386E8E5F1E011821082D3
:1006D0004AE351E0538342834EE0490F40930703BE
:1006E000935F948345E651E05683458387838087F3
:1006F00032872187148613860895FC01918D228DFF
:10070000892F90E0805C9F4F821B91098F739927FE
:100710000895FC01918D828D981731F0828DE80F3C
:10072000F11D858D90E008958FEF9FEF0895FC01F6
:10073000918D828D981761F0828DDF01A80FB11D18
:100740005D968C91928D9F5F9F73928F90E008953C
:100750008FEF9FEF0895FC01538D448D252F30E0DE
:10076000842F90E0821B930B541710F0CF960895BE
:100770000197089581E195E0892B49F080E090E0B0
:10078000892B29F00E94110581110C940000089515
:10079000FC01848DDF01A80FB11DA35ABF4F2C911E
:1007A000848D90E001968F739927848FA689B789ED
:1007B0002C93A089B1898C91837080648C93938DE4
:1007C000848D981306C00288F389E02D80818F7D87
:1007D00080830895EF92FF920F931F93CF93DF933F
:1007E000EC0181E0888F9B8D8C8D981305C0E88982
:1007F000F989808185FD26C0F62E0B8D10E00F5FF4
:100800001F4F0F731127E02E8C8DE8120CC00FB60E
:1008100007FCFACFE889F989808185FFF5CFCE0101
:100820000E94C803F1CF8B8DFE01E80FF11DE35A42
:10083000FF4FF0829FB7F8940B8FEA89FB89808184
:1008400080620AC09FB7F894EE89FF896083E889C7
:10085000F98980818370806480839FBF81E090E00C
:10086000DF91CF911F910F91FF90EF900895CF935B
:10087000DF93EC01888D8823C9F0EA89FB898081A8
:1008800085FD05C0A889B9898C9186FD0FC00FB67A
:1008900007FCF5CF808185FFF2CFA889B9898C91BB
:1008A00085FFEDCFCE010E94C803E7CFDF91CF9146
:1008B0000895CF92DF92EF92FF921F93CF93DF9331
:1008C000EC016A017B01122F60E970ED83E090E09A
:1008D000A70196010E944413DA01C9010197A109F9
:1008E000B109B695A795979587959C01E889F989EF
:1008F00082E08083211580E13807A8F0E889F98932
:10090000108268E478EE81E090E0A70196010E94F1
:100910004413DA01C9010197A109B109B695A79558
:10092000979587959C01EC85FD853083EE85FF8545
:100930002083188EEC89FD891083EA89FB898081E8
:1009400080618083EA89FB89808188608083EA896D
:10095000FB89808180688083EA89FB8980818F7D23
:100960008083DF91CF911F91FF90EF90DF90CF9028
:1009700008951F920F920FB60F9211242F938F9309
:100980009F93EF93FF93E0912302F09124028081E3
:10099000E0912902F0912A0282FD12C0908180919B
:1009A0002C028F5F8F7320912D02821751F0E091FE
:1009B0002C02F0E0ED5EFD4F958F80932C0201C07C
:1009C0008081FF91EF919F918F912F910F900FBE9A
:1009D0000F901F9018951F920F920FB60F9211242F
:1009E0002F933F934F935F936F937F938F939F9337
:1009F000AF93BF93EF93FF9383E192E00E94C8030C
:100A0000FF91EF91BF91AF919F918F917F916F91E6
:100A10005F914F913F912F910F900FBE0F901F90BC
:100A2000189583E192E00E947D0321E0892B09F46F
:100A300020E0822F0895E3E1F2E01382128288EE33
:100A400093E0A0E0B0E084839583A683B78385E339
:100A500091E09183808385EC90E09587848784EC96
:100A600090E09787868780EC90E0918B808B81EC7B
:100A700090E0938B828B82EC90E0958B848B86EC5C
:100A800090E0978B868B118E128E138E148E0895A4
:100A900008950E940E070E9448050E948A00CAEB32
:100AA000D3E00E9423012097E1F30E94BA03F9CF1B
:100AB000CF92DF92EF92FF920F931F93CF93DF932A
:100AC0006C017A018B01C0E0D0E0CE15DF0581F02A
:100AD000D8016D918D01D601ED91FC910190F081CD
:100AE000E02DC6010995892B11F02196EECF7E01EC
:100AF000C701DF91CF911F910F91FF90EF90DF9091
:100B0000CF9008956115710579F0FB0101900020E7
:100B1000E9F73197AF01461B570BDC01ED91FC91D2
:100B20000280F381E02D099480E090E00895DC01DB
:100B3000ED91FC910190F081E02D099463E471E066
:100B40000C9482050F931F93CF93DF93EC010E94C7
:100B500082058C01CE010E949E05800F911FDF91BE
:100B6000CF911F910F9108958F929F92AF92BF9254
:100B7000EF92FF920F931F93CF93DF93CDB7DEB722
:100B8000A1970FB6F894DEBF0FBECDBF7C01FA016E
:100B9000CB0119A2223008F42AE08E010F5D1F4F0D
:100BA000822E912CA12CB12CBF01A50194010E9491
:100BB0004413F901CA01015011096A3010F4605D53
:100BC00001C0695CD8016C93232B242B252B61F782
:100BD000B801C7010E948205A1960FB6F894DEBF46
:100BE0000FBECDBFDF91CF911F910F91FF90EF907E
:100BF000BF90AF909F908F900895CF92DF92EF9229
:100C0000FF920F931F93CF93DF932115310581F44A
:100C1000DC01ED91FC910190F081E02D642FDF91DA
:100C2000CF911F910F91FF90EF90DF90CF9009949B
:100C30002A30310501F577FF1DC06A017B01EC0107
:100C40006DE20E9497058C0144275527BA014C1983
:100C50005D096E097F092AE0CE010E94B405800F6C
:100C6000911FDF91CF911F910F91FF90EF90DF9037
:100C7000CF9008952AE0DF91CF911F910F91FF90BF
:100C8000EF90DF90CF900C94B4059A01AB01770FF1
:100C9000660B770B0C94FD051F920F920FB60F9207
:100CA00011242F933F938F939F93AF93BF93809182
:100CB000B1029091B202A091B302B091B40230910E
:100CC000B00220E3230F2D3720F44096A11DB11D63
:100CD00005C023EB230F4196A11DB11D2093B00247
:100CE0008093B1029093B202A093B302B093B40286
:100CF0008091B5029091B602A091B702B091B8026E
:100D00000196A11DB11D8093B5029093B602A093E8
:100D1000B702B093B802BF91AF919F918F913F916D
:100D20002F910F900FBE0F901F9018952FB7F8942A
:100D30006091B1027091B2028091B3029091B402BD
:100D40002FBF08953FB7F8948091B5029091B602F5
:100D5000A091B702B091B80226B5A89B05C02F3F5D
:100D600019F00196A11DB11D3FBFBA2FA92F982FD1
:100D70008827820F911DA11DB11DBC01CD0146E048
:100D8000660F771F881F991F4A95D1F708958F9294
:100D90009F92AF92BF92CF92DF92EF92FF926B0140
:100DA0007C010E94A2064B015C01C114D104E10444
:100DB000F10401F10E94A8100E94A206DC01CB01FF
:100DC00088199909AA09BB09883E9340A105B10574
:100DD00060F321E0C21AD108E108F10888EE880E1C
:100DE00083E0981EA11CB11CC114D104E104F104DC
:100DF00019F7DBCFFF90EF90DF90CF90BF90AF90CF
:100E00009F908F9008958A31910538F04697969576
:100E10008795969587950197F1F70895789484B50D
:100E2000826084BD84B5816084BD85B5826085BDE6
:100E300085B5816085BDEEE6F0E0808181608083CC
:100E4000E1E8F0E01082808182608083E0E8F0E0F9
:100E5000808181608083E1EBF0E080818460808329
:100E6000E0EBF0E0808181608083EAE7F0E0808160
:100E70008B7F80838081826080838081816080839A
:100E80008081806880831092C1000895833081F052
:100E900028F4813099F08230A1F008958730A9F0CC
:100EA0008830B9F08430D1F4809180008F7D03C008
:100EB000809180008F7780938000089584B58F772C
:100EC00002C084B58F7D84BD08958091B0008F7776
:100ED00003C08091B0008F7D8093B0000895CF93C0
:100EE000DF9390E0FC01E458FF4F2491FC01E057B0
:100EF000FF4F8491882361F190E0880F991FFC01D6
:100F0000E255FF4FC591D491FC01EC55FF4FA591DF
:100F1000B491611109C09FB7F8948881209582230C
:100F20008883EC912E230BC0623061F49FB7F89454
:100F30008881322F309583238883EC912E2B2C933C
:100F40009FBF06C08FB7F894E8812E2B28838FBFF0
:100F5000DF91CF9108951F93CF93DF93282F30E037
:100F6000F901E859FF4F8491F901E458FF4FD491FA
:100F7000F901E057FF4FC491CC23C1F0162F811126
:100F80000E944607EC2FF0E0EE0FFF1FEC55FF4FDD
:100F9000A591B4919FB7F894111104C08C91D0958C
:100FA000D82302C0EC91DE2BDC939FBFDF91CF9161
:100FB0001F910895FC011382158285EB868387E4D7
:100FC00087838FEF8087118208952A981C99FECF1E
:100FD0002A9A08951F93CF93DF93EC01142F2A9838
:100FE0001C99FECFCE010E94570C612FCE010E94AA
:100FF000570C2A9ADF91CF911F910895DF92EF92BB
:10100000FF920F931F93CF93DF938C01D42EE52E85
:10101000F22E60642A981C99FECFC8010E94570CDA
:10102000CD2DDE2DCE018F0D911D7C01CE15DF055E
:1010300029F06991C8010E94570CF8CF2A9ADF91D4
:10104000CF911F910F91FF90EF90DF9008952A9814
:101050001C99FECF0E94570C2A9A0895CF93DF93D4
:10106000EC01642B2A981C99FECFCE010E94570CEC
:1010700060E0CE010E94570C2A9ADF91CF9108952B
:10108000DF92EF92FF920F931F93CF93DF938C0128
:10109000D62EE72EF22E642F606C2A981C99FECF74
:1010A000C8010E94570CCD2DDE2DCE018F0D911D54
:1010B0007C01CE15DF0531F060E0C8010E94570CBD
:1010C0008993F7CF2A9ADF91CF911F910F91FF90CB
:1010D000EF90DF9008950F931F93CF93DF93EC0170
:1010E000062F142F462F64E00E94EA07412F65E087
:1010F000CE010E94EA070E831F83DF91CF911F91DB
:101100000F910895FB01418160810C946B081F933E
:10111000CF93DF93EC01162F462F69E00E94EA0778
:101120001887DF91CF911F9108951F93CF93DF937D
:10113000EC01162F462F6AE00E94EA071D83DF911B
:10114000CF911F9108951F93CF93DF93EC01162F3A
:10115000623079F06330C1F0613009F542E26DE050
:101160000E94EA0741EB6EE0CE010E94EA074BE3E2
:1011700020C040E16DE00E94EA0747EA6EE0CE0140
:101180000E94EA0742E615C043E26DE00E94EA07CA
:101190004EE46EE0CE010E94EA0744EC0AC041E250
:1011A0006DE00E94EA0742E66EE0CE010E94EA0787
:1011B00046E76FE0CE010E94EA071B83DF91CF91E3
:1011C0001F91089561E083E00E94AB0760E084E036
:1011D0000C94AB07CF93DF93EC018981882319F03E
:1011E000CE010E94E20865E3CE010E94270882E05A
:1011F0008A83DF91CF91089561E084E00E94AB077C
:1012000060E083E00C94AB07CF93DF93EC0164E3E1
:101210000E94270881E08A838981882329F0CE01F2
:10122000DF91CF910C94FC08DF91CF910895FF924C
:101230000F931F93CF93DF93CDB7DEB78C0182E07E
:10124000F8018283C8010E94040940EC65E3C801EB
:101250000E942E08982F9F719D3039F08131A9F797
:101260006AE3C8010E942708F0CF84EF91E00E9452
:1012700003074885442379F06FE3C8010E94EA0719
:101280002885AE01475F5F4F6FE3C8010E94FE07EC
:10129000C8010E94EA0840EC65E3C8010E942E08DC
:1012A0008F718351833080F066E3C8010E94270864
:1012B0006BE3C8010E942708C8010E94040981E06D
:1012C000F8018283F12C1CC04A9BFECF4A99FECFC5
:1012D00040EC6AE3C8010E942E088F77FF24F39444
:1012E0008111F12C66E3C8010E9427086BE3C80155
:1012F0000E942708C8010E94040981E0F801828346
:101300008F2DDF91CF911F910F91FF9008950F9333
:101310001F93CF93DF93CDB7DEB7C154D1090FB67A
:10132000F894DEBF0FBECDBF8C014EE260E00E949C
:10133000EA074EE261E0C8010E94EA0746E062E087
:10134000C8010E94EA0747E063E0C8010E94EA077B
:101350004DE366E0C8010E94EA0746E067E0C80185
:101360000E94EA0745E068E0C8010E94EA07B80168
:101370006A5F7F4FC8010E948208F8016085C8013A
:101380000E948708F8016581C8010E94950848E01D
:101390006BE0C8010E94EA0740E06CE0C8010E94CF
:1013A000EA07F8016381C8010E94A308F80184815B
:1013B000813011F447EC01C04AEC60E1C8010E94A1
:1013C000EA0743E861E1C8010E94EA0743E962E1F4
:1013D000C8010E94EA0742E263E1C8010E94EA07ED
:1013E00048EF64E1C8010E94EA0745E365E1C801EE
:1013F0000E94EA0747E066E1C8010E94EA0740E26E
:1014000067E1C8010E94EA0748E168E1C8010E945B
:10141000EA0746E169E1C8010E94EA074CE66AE191
:10142000C8010E94EA0743E46BE1C8010E94EA0791
:1014300040E46CE1C8010E94EA0741E96DE1C8019E
:101440000E94EA0747E86EE1C8010E94EA074BE6FE
:101450006FE1C8010E94EA074BEF60E2C8010E94F9
:10146000EA0746E561E2C8010E94EA0740E162E25C
:10147000C8010E94EA0749EE63E2C8010E94EA0738
:101480004AE264E2C8010E94EA0740E065E2C8015E
:101490000E94EA074FE166E2C8010E94EA0741E4C0
:1014A00067E2C8010E94EA0740E068E2C8010E94C2
:1014B000EA0749E569E2C8010E94EA074FE76AE2E4
:1014C000C8010E94EA074FE36BE2C8010E94EA07E5
:1014D00041E86CE2C8010E94EA0745E36DE2C801F9
:1014E0000E94EA0749E06EE2C8010E94EA071982F9
:1014F0008DB79EB7815491090FB6F8949EBF0FBE69
:101500008DBFADB7BEB7119681E4FE013196019053
:101510000D928A95E1F7C8010E9417090FB6F89459
:10152000DEBF0FBECDBFCF5BDF4F0FB6F894DEBF7F
:101530000FBECDBFDF91CF911F910F910895CF9333
:10154000DF93EC012A9A85E090E00E9403072A9835
:101550008AE090E00E9403072A9A89E290E00E94C4
:1015600003072A981C99FECF60E3CE010E94570C16
:101570001C99FECF2A9ACE01DF91CF910C94870956
:10158000CF93DF93EC016B834C830E94380C60E0B7
:1015900082E00E946F07CE010E949F0A40E66EE340
:1015A000CE01DF91CF910C94EA070F931F93CF9355
:1015B000DF93EC018B0140EC6BE30E942E08982F27
:1015C0009F7759F087FD09C040E86FE3CE010E9484
:1015D0002E08F80180838E3318F0F80110821FC0A6
:1015E000282F4FE3B8016F5F7F4FCE010E94400864
:1015F00040E86FE3CE010E942E08F80187AF40E873
:101600006FE3CE010E942E08F801E05CFF4F982F97
:101610009F779083881F8827881FF80186AF66E32D
:10162000CE010E9427086AE3CE010E942708CE015E
:101630000E940409F8018081DF91CF911F910F91E1
:10164000089560E084E00E94AB0760E083E00C94C2
:10165000AB07CF93DF93EC018981882319F0CE018A
:101660000E94210B66E3CE010E94270869E3CE01A8
:10167000DF91CF910C94270880E00E94CA108091DE
:10168000FD028130A9F469EB72E08BEF92E00E94D9
:10169000D50A882369F08091F702882349F0E09108
:1016A0000503F0910603309719F089EB92E0099554
:1016B00042E050E06CE37BE080E00C94AA10CF9312
:1016C000DF93EC0101960E94DA071C861B86DF91EE
:1016D000CF9108950F931F93CF93DF93EC018C016B
:1016E0000F5F1F4FC8010E94C00A82E390E00E9472
:1016F0000307C8010E94040942E050E06CE37BE06C
:1017000080E00E94AA101882DF91CF911F910F9163
:1017100008950FB6F894A895809160008861809331
:101720006000109260000FBE98E088E10FB6F89458
:10173000A895809360000FBE90936000FFCF8F92BA
:101740009F92AF92BF92CF92DF92EF92FF920F9350
:101750001F93CF93DF936115710509F456C09B0168
:1017600027703327232B51F48B0163E016950795DF
:101770006A95E1F74130E9F0C9E020C09B01237090
:1017800033278B01232B59F4413019F41695079513
:1017900012C01695079516950795C8E00FC060FD15
:1017A00005C016950795413021F405C0413019F464
:1017B00004C0C7E003C0C6E001C0C5E0D42F7C016F
:1017C00081E0F70181936F01CF010E94290BA12CC9
:1017D000B12CC7010A964C01A016B1068CF4F70192
:1017E0008081882369F06C2FC401D13019F40E94E4
:1017F000B71102C00E949211FFEFAF1ABF0AECCFDF
:10180000C6010E94E507F7011082DF91CF911F9179
:101810000F91FF90EF90DF90CF90BF90AF909F908F
:101820008F9008958EE480937C0062E070E080E009
:1018300090E00E94C70680917A00806480937A00CD
:1018400080917A0086FDFCCF20917800809179000C
:1018500030E0382B40E050E060E070E381E190E060
:101860000E946613C90108958AEF92E00C945F0B01
:1018700061E08AE00E94AB0761E08AE00E946F07A6
:1018800061E08BE00E946F0760E08CE00E946F07D0
:1018900061E08DE00E946F0761E08DE00E94AB0780
:1018A00060E08BE00E94AB0780E58CBD08956EBDC3
:1018B0000DB407FEFDCF8EB508950F93CF93DF9340
:1018C0001F92CDB7DEB7FC012185328537FD08C0F8
:1018D0006581768107814385CE0101960E94DC11E6
:1018E0000F90DF91CF910F9108950F93CF93DF93D6
:1018F000CDB7DEB7C055D1090FB6F894DEBF0FBE25
:10190000CDBFFC0145815681008527816481CE01D0
:1019100001960E946810CE0101960E94920FC05B52
:10192000DF4F0FB6F894DEBF0FBECDBFDF91CF9172
:101930000F910895CF93DF93EC01E881F9813097FF
:1019400011F08C810995CE01DF91CF910C94750C2B
:10195000EF92FF920F93CF93DF931F92CDB7DEB735
:101960007C01DC011296ED91FC911397309719F0F0
:1019700014968C910995C7010E94750CF701218579
:10198000328537FD08C06581768107814385CE01A8
:1019900001960E940A120F90DF91CF910F91FF9054
:1019A000EF900895DC0190E01796EC9117979E1741
:1019B00098F4F0E0292F30E03197E21BF30BE60FAB
:1019C000F71F808115964D915C911697FA01E20FF1
:1019D000F31F80839F5FE8CF0895CF93DF93CDB748
:1019E000DEB7C055D1090FB6F894DEBF0FBECDBF2C
:1019F000FC012081273008F4A8C0BC01CE0101966B
:101A00000E94080F2B968FAD2B9781119EC080915D
:101A1000080390910903009729F0BE016F5F7F4F83
:101A20000E94821220910B0321FF05C028968FADE2
:101A3000289781FF8AC02A968FAD2A97813089F531
:101A400024962EAD3FAD24972115310531F42D9606
:101A50008FAD2D97882341F078C080910A0390E0E4
:101A60002817390709F071C02C968FAD2C9790E09C
:101A70002817390709F069C02D96EFAD2D97809191
:101A80000001E81708F061C0F0E0EE0FFF1FEF5F04
:101A9000FE4F80819181009709F457C00E949A0CF3
:101AA00054C0813058F4E0911203F0911303309741
:101AB00009F44BC0CE010196099547C0823009F068
:101AC00044C024964EAD5FAD249780910A0390E008
:101AD00048175907D1F52C968FAD2C9790E04817F1
:101AE000590799F52D96EFAD2D9730910001E31729
:101AF00060F5F0E0EE0FFF1FEF5FFE4F80819181F8
:101B0000009719F120FF11C040910C0329962FADC9
:101B10002997421751F0383028F080910F019091A9
:101B2000100111C080E090E00EC060963FAD60975C
:101B3000FC012781321307C02F966EAD7FAD2F9722
:101B40000E94A80C02C00E94750CC05BDF4F0FB64C
:101B5000F894DEBF0FBECDBFDF91CF910895EF9215
:101B6000FF920F931F93CF93DF9300D0CDB7DEB7D3
:101B70007C0182E0898301E011E0BE016F5F7F4F4D
:101B8000F801868197810E94A80CF7016681778110
:101B900041E08AEF92E00E949F0B83E08A83BE01BE
:101BA0006E5F7F4FF801868197810E94A80C0F908D
:101BB0000F90DF91CF911F910F91FF90EF900895BB
:101BC0000F93CF93DF93CDB7DEB72A970FB6F89474
:101BD000DEBF0FBECDBF8BEA8F838DEC888702E01E
:101BE00028E040E0BE01695F7F4FCE010A960E9467
:101BF0000A12198601E020E040E0BE01675F7F4FD6
:101C0000CE010A960E940A1285EB8D8387E48E83AB
:101C100002E022E040E0BE016B5F7F4FCE010A96FA
:101C20000E940A12809166001B828C8324E040E0AF
:101C3000BE016D5F7F4FCE010A960E940A128FE0AF
:101C400089831A8226E040E0BE016F5F7F4FCE019C
:101C50000A960E940A122A960FB6F894DEBF0FBEAB
:101C6000CDBFDF91CF910F910895EF92FF920F9327
:101C70001F93CF93DF9300D01F92CDB7DEB77C01C7
:101C800002E028E040E0BE016F5F7F4FCE01039687
:101C90000E94DC1189818B3A19F48A818D3C19F0FC
:101CA000C7010E94E00D10E080910001181760F458
:101CB000E12FF0E0EE0FFF1FEF5FFE4F808191817B
:101CC0000E945D0C1F5FF0CFF701828180930303B8
:101CD00040E060E08AEF92E00E946A0B40EC6EE325
:101CE0008BEF92E00E94EA0762E571E083E192E007
:101CF0000E94A2058DEE9CE090930603809305035D
:101D00000F900F900F90DF91CF911F910F91FF9047
:101D1000EF900895E8E0F3E01386128611821082B6
:101D200011861086138208950895AF92BF92CF92C4
:101D3000DF92EF92FF920F931F93CF93DF93DC011B
:101D4000A95BBF4FE0911003F0911103662321F0CE
:101D500031852C9123272C932C91EC01C85BDF4F0C
:101D600038813227438534273883259732853227B7
:101D700048815981432759834883279638813227E0
:101D8000408534273883219638813227478134278C
:101D900038832396788104E113E0A12CB12C30E044
:101DA0007C014CE4E40EF11CA716C8F4E70148815D
:101DB00059814A0D5B1D6F01C30ED11CEA01588188
:101DC000E601488145274227E80149938E013F5F9C
:101DD0003B3009F430E0DFEFAD1ABD0AE5CF7723E1
:101DE00039F0EC01C45BDF4F44E153E05983488391
:101DF000611103C0818528272C93DF91CF911F911A
:101E00000F91FF90EF90DF90CF90BF90AF9008952B
:101E1000CF92DF92EF92FF920F931F93CF93DF93B6
:101E2000FC01DB018D91EF01899390E0981721F07F
:101E30002D9129939F5FFACF9381DF01AB5BBF4F59
:101E4000292F22952F702C936F0126E4C20ED11CEE
:101E50009F70D6019C93948111969C9395811196C5
:101E6000292F2F772C931196EF01CF5BDF4F8F0136
:101E70000D5B1F4FBF01665B7F4FAF01455B5F4F3F
:101E800097FF16C091E09C9321813281322723274E
:101E90003227398328832681378132272327322727
:101EA000E801398328839185EB01988392850EC0E0
:101EB0001C92218130E039832883228130E0E801BF
:101EC000398328839681EB0198839781EA0198836F
:101ED0009F01245B3F4FAF01485F5F4FE90159838A
:101EE00048832E5F3F4F8750E90188838C91811191
:101EF00010C0D6018C9181FF0CC061E0CF01DF9151
:101F0000CF911F910F91FF90EF90DF90CF900C94A5
:101F1000950EDF91CF911F910F91FF90EF90DF9081
:101F2000CF900895CF92DF92EF92FF920F931F937D
:101F3000CF93DF93CDB7DEB7C154D1090FB6F89474
:101F4000DEBF0FBECDBF8C01FC01E15BFF4F808186
:101F50009801225B3F4F7901E754F109D9018111C2
:101F600010C08C9190E0A801445B5F4F0197D8F0BE
:101F7000DA012D913C91D901A80FB91F2C91219321
:101F8000F5CF3C9180E090E0A801445B5F4F831760
:101F900050F4DA016D917C91DB01A80FB91F2C91EF
:101FA00021930196F4CF6801B6E4CB0ED11CF60163
:101FB000808181FF04C060E0C8010E94950ED701B6
:101FC0008C91895FF8018083EB5BFF4F8081F0E1AA
:101FD0008F9FC0011124D6019C919F70892BF8011D
:101FE0008383E95BFF4F8081D80114968C9314970B
:101FF0003296108238978081F8018183ED5BFF4F24
:10200000808112968C93129735968081F801858392
:10201000E65BFF4F808116968C9331968081F801A4
:10202000878393E0E92E81E4F801DE0111960190A7
:102030000D928A95E1F72DB73EB7215431090FB6BD
:10204000F8943EBF0FBE2DBFADB7BEB7119681E469
:10205000FE01319601900D928A95E1F78BEF92E0A7
:102060000E941709F82E0FB6F894DEBF0FBECDBF41
:1020700081110FC0EA94EE2061F06091030370E0DB
:10208000660F771F072E000C880B990B0E94C7065E
:10209000CACF6F2D70E04AE050E083E192E00E94E9
:1020A000450664E471E083E192E00E94A2058F2D71
:1020B000CF5BDF4F0FB6F894DEBF0FBECDBFDF9111
:1020C000CF911F910F91FF90EF90DF90CF900895E7
:1020D000DF92EF92FF920F931F93CF93DF93EC0168
:1020E000D62E7A01122F0E94940EFE01EF5BFF4F55
:1020F00011821082E8E0F3E09281DE01AD5BBF4F18
:10210000292F30E011963C932E9312961C92119633
:1021100083818F708C9384818F5F8483FE01E95B60
:10212000FF4F808331961082329690833196D08211
:10213000339610833297F182E082C15BDF4F0883D0
:10214000DF91CF911F910F91FF90EF90DF90089555
:10215000089508958230E8F4E82FF0E0EE0FFF1FB5
:10216000E35DFE4F71836083813041F080916900AF
:102170008C7F482B40936900E89A0895809169000C
:10218000837F440F551F440F551F482B4093690010
:10219000E99A0895823078F4813011F0E89801C00E
:1021A000E998E82FF0E0EE0FFF1FE35DFE4F89EAAC
:1021B00090E19183808308951F920F920FB60F9242
:1021C00011242F933F934F935F936F937F938F933C
:1021D0009F93AF93BF93EF93FF93E0912D01F09105
:1021E0002E010995FF91EF91BF91AF919F918F9132
:1021F0007F916F915F914F913F912F910F900FBE03
:102200000F901F9018951F920F920FB60F921124E6
:102210002F933F934F935F936F937F938F939F93EE
:10222000AF93BF93EF93FF93E0912F01F0913001B3
:102230000995FF91EF91BF91AF919F918F917F9100
:102240006F915F914F913F912F910F900FBE0F9023
:102250001F90189583B78E7F83BFE4E6F0E08081FE
:1022600080718083EAE7F0E080818068808310924B
:10227000700008951F920F920FB60F9211240F90C5
:102280000FBE0F901F901895862F8770683008F04A
:102290008062806194B7977F94BF9091600098614D
:1022A00090936000809360008091600080648093D0
:1022B000600008951F920F920FB60F9211248F9312
:1022C0009F93AF93BF938091510390915203A0913C
:1022D0005303B09154030196A11DB11D8093510386
:1022E00090935203A0935303B0935403BF91AF91C3
:1022F0009F918F910F900FBE0F901F90189580E2C5
:102300008093B6001092B2001092B0006093B100BA
:102310008091B6008371E1F787E087BB81E080930D
:1023200070000895CF93DF93EC0183B7817F8460C1
:1023300083BF83B7816083BFCE010E9444118AE0CE
:1023400090E00E940307EAE7F0E080818F778083C6
:102350008FEF8093640083B7816083BF889583B7D4
:102360008E7F83BFCE01DF91CF910C942A11CF9342
:10237000DF93EC0183B7817F866083BF83B7816081
:1023800083BFCE010E947F118AE090E00E94030784
:10239000EAE7F0E080818F7780838FEF809364009D
:1023A00083B7816083BF889583B78E7F83BFCE015B
:1023B000DF91CF910C942A11CF92DF92EF92FF928E
:1023C0000F931F93CF93DF9341111AC07B01F894B1
:1023D0006B0110E0C22FD0E0C61BD70B802F9601F7
:1023E0002E193F092017310748F4CE018C0D9D1D91
:1023F0000E949F13F60181936F01F0CF789401C082
:1024000080E0DF91CF911F910F91FF90EF90DF90CF
:10241000CF900895CF92DF92EF92FF920F931F9388
:10242000CF93DF93411119C0F8946B01E12CF12C8B
:1024300010E0C22FD0E0802FE016F10660F4F60124
:1024400061916F01CE018E0D9F1D0E94A713FFEFBA
:10245000EF1AFF0AF0CF789401C080E0DF91CF91AE
:102460001F910F91FF90EF90DF90CF900895EF9222
:10247000FF920F931F93CF93DF937C018B01C09149
:102480005503D0E00E94960623E0CC0FDD1F2A956D
:10249000E1F7CE0DDF1D69837A838B839C832091C6
:1024A0005503F801E85BFF4F3081822F90E0F70180
:1024B00048E0249FE00DF11D11243583D801AD5B68
:1024C000BF4F2C91268314962C912783F801E65B4D
:1024D000FF4F408101969C0153E0220F331F5A9514
:1024E000E1F7F701E20FF31F408364E170E00E941F
:1024F000301380935503DF91CF911F910F91FF907F
:10250000EF9008954F925F926F927F928F929F9279
:10251000AF92BF92CF92DF92EF92FF920F931F93F1
:10252000CF93DF93FC01EF55FF4F2081222309F465
:1025300086C020910A0330E0FB01EF5BFF4F408132
:1025400051814217530709F47AC04B0125E4820EEA
:10255000911CF4013081FC012081321708F06FC01A
:10256000EB018C017C012C01F0EA4F0E511C3B0168
:102570002AE4620E711C6B0188E4C80ED11C5B0159
:10258000E7E4AE0EB11CF7019085F3018081981746
:1025900039F0F8E0EF0EF11C4E145F04A1F71FC0F4
:1025A000F7019581F60180819813F3CFF7019781A8
:1025B000F50180819813EDCF0E949606F7012181E5
:1025C000328143815481DC01CB01821B930BA40B2C
:1025D000B50B803D9740A105B105D8F630C0FE018E
:1025E000ED5BFF4F80910A0390E091838083F401BB
:1025F00080818F5F80836091030370E0660F771F97
:10260000072E000C880B990B0E94C706CE010E9472
:10261000920F8823A1F0BE01C801DF91CF911F91D5
:102620000F91FF90EF90DF90CF90BF90AF909F9071
:102630008F907F906F905F904F900C943712DF9146
:10264000CF911F910F91FF90EF90DF90CF90BF90AF
:10265000AF909F908F907F906F905F904F90089574
:1026600097FB072E16F4009407D077FD09D00E943F
:10267000851307FC05D03EF4909581959F4F0895F2
:10268000709561957F4F0895A1E21A2EAA1BBB1B7E
:10269000FD010DC0AA1FBB1FEE1FFF1FA217B3072E
:1026A000E407F50720F0A21BB30BE40BF50B661F44
:1026B000771F881F991F1A9469F760957095809508
:1026C00090959B01AC01BD01CF010895052E97FBAC
:1026D0001EF400940E947D1357FD07D00E944413FE
:1026E00007FC03D04EF40C947D1350954095309523
:1026F00021953F4F4F4F5F4F08959095809570956E
:1027000061957F4F8F4F9F4F0895AA1BBB1B51E1CF
:1027100007C0AA1FBB1FA617B70710F0A61BB70B51
:10272000881F991F5A95A9F780959095BC01CD01F6
:102730000895EE0FFF1F0590F491E02D0994F9998B
:10274000FECF92BD81BDF89A992780B50895262FB6
:10275000F999FECF1FBA92BD81BD20BD0FB6F89486
:0E276000FA9AF99A0FBE01960895F894FFCFE9
:10276E000E0602F901EC01DF01D201C501B701AA83
:10277E00019D019001830174016601580100000062
:10278E0001000000010000099900000888A910A9A5
:10279E001000000000EA035805AB0337047D0397D1
:1027AE000389030D0A006E616E00696E66006F7616
:0827BE006600686965720A00FB
:00000001FF
