:100000000C9460000C94E30F0C940A100C9488007C
:100010000C9488000C9488000C9431100C94880087
:100020000C9488000C943B100C9488000C9488006D
:100030000C9488000C9488000C9488000C94880020
:100040000C9416060C9488000C9483040C94B5044C
:100050000C9488000C9488000C9488000C94880000
:100060000C9488000C948800000000080002010035
:100070000003040700000000000000000102040863
:100080001020408001020408102001020408102002
:10009000040404040404040402020202020203032E
:1000A0000303030300000000250028002B000000CC
:1000B0000000240027002A001D02E5046C0B910DAE
:1000C00011241FBECFEFD8E0DEBFCDBF11E0A0E00E
:1000D000B1E0E6E7F4E202C005900D92AA35B1075F
:1000E000D9F723E0AAE5B1E001C01D92A835B20717
:1000F000E1F710E0C0E6D0E004C02197FE010E94C5
:100100001D12CC35D107C9F70E9413050C94391282
:100110000C94000090910201891748F4E82FF0E058
:10012000EE0FFF1FED5FFE4F80819181089580E00B
:1001300090E008950F931F93CF93DF931F92CDB755
:10014000DEB761E084E00E943A0760E084E00E944C
:10015000760700E011E061E0F80180810E943A0733
:1001600061E0F80181810E943A0726E040E056E90B
:1001700060E070E085E192E00E9423048AE093E071
:100180000E943C0D40EC6EE38DEF92E00E94B007C0
:1001900080E00E948A000E94D20B8AE00E948A00BE
:1001A0000E94D20B81E08983BE016F5F7F4F8091F7
:1001B000090190910A010E94E00B62E370E080E087
:1001C00090E00E9491068BE00E948A000E94D20B70
:1001D0008CE00E948A000E94D20B8DE00E948A006F
:1001E0000E94D20B0F90DF91CF911F910F91089534
:1001F00061E084E00E9476076CE271E080E090E0CC
:100200000E94910660E084E00E9476078BE00E94E5
:100210008A000E94D20B8CE00E948A000E94D20BBE
:100220008DE00E948A000E94D20B6CEB72E080E0AD
:1002300090E00C949106E82FF0E0EE0FFF1FED5FC9
:10024000FE4F0190F081E02D0580F681E02DDB016D
:100250008C91808308950C941B0185E891E00C94A7
:100260000A0CCF92DF92EF92FF920F93CF93DF931E
:10027000CDB7DEB7C055D1090FB6F894DEBF0FBEBB
:10028000CDBF7B0182E9C82E81E0D82E01E0F601C6
:100290002781AB016481CE0101960E946F0FCE01D0
:1002A00001960E94990EB701C6010E940A0CF60140
:1002B0008781E80EF11CF701319760818DEF92E0A4
:1002C0000E944D08C05BDF4F0FB6F894DEBF0FBE33
:1002D000CDBFDF91CF910F91FF90EF90DF90CF9046
:1002E0000895EF92FF920F93CF93DF93CDB7DEB7D0
:1002F000C055D1090FB6F894DEBF0FBECDBFE09157
:10030000A401F091A501DB019C918081981305C0A7
:1003100011969C9181819817A1F07B0101E02091B9
:10032000A601AB016091A301CE0101960E946F0F5F
:10033000CE0101960E94990EB7018DEF92E00E94C6
:100340004808C05BDF4F0FB6F894DEBF0FBECDBFCD
:10035000DF91CF910F91FF90EF900895CF93C82F29
:100360008CEF92E00E944A0BEC2FF0E0EE0FFF1FA3
:10037000ED5FFE4FA081B18115960D90BC91A02D2F
:10038000AC015C930190F081E02D0580F681E02DB9
:100390008183CF910895EF92FF920F93CF93DF93D4
:1003A000CDB7DEB7C055D1090FB6F894DEBF0FBE8A
:1003B000CDBFE091D901F091DA01DB019C91808100
:1003C0009817A9F07B0101E02091DB01AB0160915E
:1003D000D801CE0101960E946F0FCE0101960E94B6
:1003E000990EF70160818DEF92E00E945B08C05B7F
:1003F000DF4F0FB6F894DEBF0FBECDBFDF91CF91B8
:100400000F91FF90EF900895FB01808180930F037F
:100410008081811111C080910201843028F0809187
:10042000090190910A0102C080E090E00E94AD0BAA
:100430008CEF92E00C94340B0895E8E0F2E0118226
:1004400010821382128290910903948327E231E093
:100450003683258388E0878381E080872FEF3FEF15
:100460003287218714861386EBEFF1E01182108228
:100470001382128241E0490F448343E251E05683E4
:10048000458344E04783808732872187148613861B
:10049000EEEEF1E0118210821382128252E0590FC7
:1004A00054836FE171E07683658347838087328769
:1004B000218714861386E1EEF1E01182108244E078
:1004C00052E05383428343E0490F44834FE053E0BB
:1004D00056834583878380873287218714861386D6
:1004E000E4EDF1E0118210824BEC51E05383428342
:1004F00044E0490F448342E053E0568345838783B9
:1005000010861286118614861386E7ECF1E01182BC
:1005100010821382128245E0490F44834DE053E07C
:100520005683458387838087328721871486138685
:10053000E9EBF1E0118210821382128246E0490F4A
:10054000448346EC51E05683458387838087328716
:10055000218714861386ECEAF1E01182108213825F
:10056000128247E0490F44834EE053E056834583AF
:10057000878380873287218714861386EFE9F1E02D
:100580001182108241E751E05383428348E0490FD2
:10059000448343E053E05683458342E047838087AA
:1005A00062E070E07287618714861386E2E9F1E009
:1005B0001182108261E371E07383628359E0590F05
:1005C00054836CE073E0768365838783108665E0EF
:1005D00070E07287618714861386E5E8F1E0118286
:1005E00010826DE271E0738362835AE0590F548385
:1005F00060E173E0768365834783108666E070E090
:100600007287618714861386E6E7F1E06EEA71E08F
:1006100071836083138212825BE0590F548363E815
:1006200071E07683658347838087328721871486CC
:100630001386E8E6F1E0118210824BE251E0538329
:1006400042834CE0490F448345E751E0568345839C
:10065000878380873287218714861386EAE5F1E055
:10066000118210824BE151E0538342834EE0490FE7
:1006700040930903935F948347E651E05683458393
:100680008783808732872187148613860895FC012B
:10069000918D228D892F90E0805C9F4F821B910964
:1006A0008F7399270895FC01918D828D981731F0F1
:1006B000828DE80FF11D858D90E008958FEF9FEFFB
:1006C0000895FC01918D828D981761F0828DDF0174
:1006D000A80FB11D5D968C91928D9F5F9F73928F35
:1006E00090E008958FEF9FEF0895FC01538D448DA6
:1006F000252F30E0842F90E0821B930B541710F0CD
:10070000CF960895019708958BED94E0892B49F0D9
:1007100080E090E0892B29F00E94DB0481110C9489
:1007200000000895FC01848DDF01A80FB11DA35ABC
:10073000BF4F2C91848D90E001968F739927848F01
:10074000A689B7892C93A089B1898C918370806424
:100750008C93938D848D981306C00288F389E02DC5
:1007600080818F7D80830895EF92FF920F931F9376
:10077000CF93DF93EC0181E0888F9B8D8C8D981354
:1007800005C0E889F989808185FD26C0F62E0B8D8C
:1007900010E00F5F1F4F0F731127E02E8C8DE812B2
:1007A0000CC00FB607FCFACFE889F989808185FF74
:1007B000F5CFCE010E949203F1CF8B8DFE01E80FA1
:1007C000F11DE35AFF4FF0829FB7F8940B8FEA892F
:1007D000FB89808180620AC09FB7F894EE89FF8907
:1007E0006083E889F98980818370806480839FBFFA
:1007F00081E090E0DF91CF911F910F91FF90EF90FA
:100800000895CF93DF93EC01888D8823C9F0EA899E
:10081000FB89808185FD05C0A889B9898C9186FDF9
:100820000FC00FB607FCF5CF808185FFF2CFA889F6
:10083000B9898C9185FFEDCFCE010E949203E7CF5D
:10084000DF91CF910895CF92DF92EF92FF921F93A5
:10085000CF93DF93EC016A017B01122F60E874E80B
:100860008EE190E0A70196010E94C811DA01C9014A
:100870000197A109B109B695A795979587959C0110
:10088000E889F98982E08083211580E13807A8F0A2
:10089000E889F989108260E472E48FE090E0A701B2
:1008A00096010E94C811DA01C9010197A109B10995
:1008B000B695A795979587959C01EC85FD85308326
:1008C000EE85FF852083188EEC89FD891083EA89E7
:1008D000FB89808180618083EA89FB8980818860CF
:1008E0008083EA89FB89808180688083EA89FB892B
:1008F00080818F7D8083DF91CF911F91FF90EF905A
:10090000DF90CF9008951F920F920FB60F9211248F
:100910002F938F939F93EF93FF93E0912502F09194
:1009200026028081E0912B02F0912C0282FD12C000
:10093000908180912E028F5F8F7320912F028217FA
:1009400051F0E0912E02F0E0EB5EFD4F958F809329
:100950002E0201C08081FF91EF919F918F912F9185
:100960000F900FBE0F901F9018951F920F920FB609
:100970000F9211242F933F934F935F936F937F9325
:100980008F939F93AF93BF93EF93FF9385E192E093
:100990000E949203FF91EF91BF91AF919F918F9130
:1009A0007F916F915F914F913F912F910F900FBE6B
:1009B0000F901F90189585E192E00E94470321E077
:1009C000892B09F420E0822F0895E5E1F2E01382FB
:1009D000128288EE93E0A0E0B0E084839583A68342
:1009E000B78387E391E09183808385EC90E09587DE
:1009F000848784EC90E09787868780EC90E0918BE9
:100A0000808B81EC90E0938B828B82EC90E0958BD5
:100A1000848B86EC90E0978B868B118E128E138ED2
:100A2000148E089508950E94D6060E9412050E9411
:100A30009A00C4E8D3E00E94F8002097E1F30E94F6
:100A40008403F9CFCF92DF92EF92FF920F931F931F
:100A5000CF93DF936C017A018B01C0E0D0E0CE151B
:100A6000DF0581F0D8016D918D01D601ED91FC91EA
:100A70000190F081E02DC6010995892B11F0219696
:100A8000EECF7E01C701DF91CF911F910F91FF90B3
:100A9000EF90DF90CF9008956115710579F0FB011B
:100AA00001900020E9F73197AF01461B570BDC019D
:100AB000ED91FC910280F381E02D099480E090E0BB
:100AC0000895DC01ED91FC910190F081E02D0994F5
:100AD00065E471E00C944C050F931F93CF93DF9363
:100AE000EC010E944C058C01CE010E946805800F2C
:100AF000911FDF91CF911F910F9108958F929F9237
:100B0000AF92BF92EF92FF920F931F93CF93DF9319
:100B1000CDB7DEB7A1970FB6F894DEBF0FBECDBF3D
:100B20007C01FA01CB0119A2223008F42AE08E01DF
:100B30000F5D1F4F822E912CA12CB12CBF01A5015E
:100B400094010E94C811F901CA01015011096A30CB
:100B500010F4605D01C0695CD8016C93232B242BD9
:100B6000252B61F7B801C7010E944C05A1960FB66D
:100B7000F894DEBF0FBECDBFDF91CF911F910F91D3
:100B8000FF90EF90BF90AF909F908F900895CF927D
:100B9000DF92EF92FF920F931F93CF93DF93211574
:100BA000310581F4DC01ED91FC910190F081E02DA3
:100BB000642FDF91CF911F910F91FF90EF90DF9005
:100BC000CF9009942A30310501F577FF1DC06A01E5
:100BD0007B01EC016DE20E9461058C0144275527E1
:100BE000BA014C195D096E097F092AE0CE010E9405
:100BF0007E05800F911FDF91CF911F910F91FF9084
:100C0000EF90DF90CF9008952AE0DF91CF911F9170
:100C10000F91FF90EF90DF90CF900C947E059A019A
:100C2000AB01770F660B770B0C94C7051F920F92E1
:100C30000FB60F9211242F933F938F939F93AF93EF
:100C4000BF938091B3029091B402A091B502B0918C
:100C5000B6023091B20226E0230F2D3720F402961F
:100C6000A11DB11D05C029E8230F0396A11DB11DCB
:100C70002093B2028093B3029093B402A093B50282
:100C8000B093B6028091B7029091B802A091B902D8
:100C9000B091BA020196A11DB11D8093B702909345
:100CA000B802A093B902B093BA02BF91AF919F91DD
:100CB0008F913F912F910F900FBE0F901F9018951D
:100CC0002FB7F8946091B3027091B4028091B5028D
:100CD0009091B6022FBF08953FB7F8948091B70264
:100CE0009091B802A091B902B091BA0226B5A89B22
:100CF00005C02F3F19F00196A11DB11D3FBFBA2FAE
:100D0000A92F982F8827820F911DA11DB11DBC010D
:100D1000CD0143E0660F771F881F991F4A95D1F7D1
:100D200008958F929F92AF92BF92CF92DF92EF92EF
:100D3000FF926B017C010E946C064B015C01C114A7
:100D4000D104E104F10401F10E94AF0F0E946C068E
:100D5000DC01CB0188199909AA09BB09883E934097
:100D6000A105B10560F321E0C21AD108E108F1083C
:100D700088EE880E83E0981EA11CB11CC114D1041A
:100D8000E104F10419F7DBCFFF90EF90DF90CF90F3
:100D9000BF90AF909F908F9008958330910528F079
:100DA000880F991F04970197F1F70895789484B5F7
:100DB000826084BD84B5816084BD85B5826085BD57
:100DC00085B5816085BDEEE6F0E08081816080833D
:100DD000E1E8F0E010828081826080838081816020
:100DE0008083E0E8F0E0808181608083E1EBF0E0E7
:100DF000808184608083E0EBF0E08081816080838B
:100E0000EAE7F0E080818460808380818260808373
:100E100080818E7F80838081806880831092C10072
:100E20000895833081F028F4813099F08230A1F068
:100E300008958730A9F08830B9F08430D1F48091DA
:100E400080008F7D03C0809180008F778093800029
:100E5000089584B58F7702C084B58F7D84BD0895D1
:100E60008091B0008F7703C08091B0008F7D809318
:100E7000B0000895CF93DF9390E0FC01E458FF4F5A
:100E80002491FC01E057FF4F8491882361F190E0A9
:100E9000880F991FFC01E255FF4FC591D491FC01C9
:100EA000EC55FF4FA591B491611109C09FB7F8941B
:100EB0008881209582238883EC912E230BC0623099
:100EC00061F49FB7F8948881322F3095832388830B
:100ED000EC912E2B2C939FBF06C08FB7F894E8811E
:100EE0002E2B28838FBFDF91CF9108951F93CF932F
:100EF000DF93282F30E0F901E859FF4F8491F90181
:100F0000E458FF4FD491F901E057FF4FC491CC232F
:100F1000C1F0162F81110E941107EC2FF0E0EE0FA7
:100F2000FF1FEC55FF4FA591B4919FB7F894111195
:100F300004C08C91D095D82302C0EC91DE2BDC93B9
:100F40009FBFDF91CF911F910895FC0113821582FD
:100F500085EB868387E487838FEF808711820895EE
:100F60001F93CF93DF93EC01142F2A981C99FECF87
:100F7000CE010E948F0B612FCE010E948F0B2A9A07
:100F8000DF91CF911F910895DF92EF92FF920F931F
:100F90001F93CF93DF938C01D42EE52EF22E606445
:100FA0002A981C99FECFC8010E948F0BCD2DDE2DF3
:100FB000CE018F0D911D7C01CE15DF0529F06991C1
:100FC000C8010E948F0BF8CF2A9ADF91CF911F9111
:100FD0000F91FF90EF90DF9008952A981C99FECF13
:100FE0000E948F0B2A9A0895CF93DF93EC01642B14
:100FF0002A981C99FECFCE010E948F0B60E0CE0193
:101000000E948F0B2A9ADF91CF910895DF92EF9281
:10101000FF920F931F93CF93DF938C01D62EE72E71
:10102000F22E642F606C2A981C99FECFC8010E9492
:101030008F0BCD2DDE2DCE018F0D911D7C01CE1598
:10104000DF0531F060E0C8010E948F0B8993F7CF74
:101050002A9ADF91CF911F910F91FF90EF90DF902F
:1010600008950F931F93CF93DF93EC01062F142F56
:10107000462F64E00E94B007412F65E0CE010E9438
:10108000B0070E831F83DF91CF911F910F910895B9
:10109000FB01418160810C9431081F93CF93DF9352
:1010A000EC01162F462F69E00E94B0071887DF91E8
:1010B000CF911F9108951F93CF93DF93EC01162FCB
:1010C000462F6AE00E94B0071D83DF91CF911F91E8
:1010D00008951F93CF93DF93EC01162F623079F0C0
:1010E0006330C1F0613009F542E26DE00E94B00763
:1010F00041EB6EE0CE010E94B0074BE320C040E11F
:101100006DE00E94B00747EA6EE0CE010E94B00792
:1011100042E615C043E26DE00E94B0074EE46EE087
:10112000CE010E94B00744EC0AC041E26DE00E948B
:10113000B00742E66EE0CE010E94B00746E76FE0DE
:10114000CE010E94B0071B83DF91CF911F910895BC
:1011500061E083E00E94760760E084E00C9476070B
:10116000CF93DF93EC018981882319F0CE010E948F
:10117000A80865E3CE010E94ED0782E08A83DF9133
:10118000CF91089561E084E00E94760760E083E0FB
:101190000C947607CF93DF93EC0164E30E94ED0794
:1011A00081E08A838981882329F0CE01DF91CF9164
:1011B0000C94C208DF91CF910895FF920F931F9373
:1011C000CF93DF93CDB7DEB78C0182E0F801828345
:1011D000C8010E94CA0840EC65E3C8010E94F407F8
:1011E000982F9F719D3039F08131A9F76AE3C801CA
:1011F0000E94ED07F0CF84EF91E00E94CD06488574
:10120000442379F06FE3C8010E94B0072885AE013E
:10121000475F5F4F6FE3C8010E94C407C8010E9487
:10122000B00840EC65E3C8010E94F4078F71835158
:10123000833080F066E3C8010E94ED076BE3C801CC
:101240000E94ED07C8010E94CA0881E0F80182836C
:10125000F12C1CC04A9BFECF4A99FECF40EC6AE3BA
:10126000C8010E94F4078F77FF24F3948111F12CB9
:1012700066E3C8010E94ED076BE3C8010E94ED0719
:10128000C8010E94CA0881E0F80182838F2DDF9196
:10129000CF911F910F91FF9008950F931F93CF93BC
:1012A000DF93CDB7DEB7C154D1090FB6F894DEBFD6
:1012B0000FBECDBF8C014EE260E00E94B0074EE24F
:1012C00061E0C8010E94B00746E062E0C8010E94E8
:1012D000B00747E063E0C8010E94B0074DE366E055
:1012E000C8010E94B00746E067E0C8010E94B0074D
:1012F00045E068E0C8010E94B007B8016A5F7F4F0F
:10130000C8010E944808F8016085C8010E944D0884
:10131000F8016581C8010E945B0848E06BE0C801E4
:101320000E94B00740E06CE0C8010E94B007F801DD
:101330006381C8010E946908F8018481813011F439
:1013400047EC01C04AEC60E1C8010E94B00743E8E5
:1013500061E1C8010E94B00743E962E1C8010E944F
:10136000B00742E263E1C8010E94B00748EF64E1C0
:10137000C8010E94B00745E365E1C8010E94B007BB
:1013800047E066E1C8010E94B00740E267E1C8019A
:101390000E94B00748E168E1C8010E94B00746E139
:1013A00069E1C8010E94B0074CE66AE1C8010E94E9
:1013B000B00743E46BE1C8010E94B00740E46CE170
:1013C000C8010E94B00741E96DE1C8010E94B00761
:1013D00047E86EE1C8010E94B0074BE66FE1C80123
:1013E0000E94B0074BEF60E2C8010E94B00746E5DB
:1013F00061E2C8010E94B00740E162E2C8010E94B8
:10140000B00749EE63E2C8010E94B0074AE264E215
:10141000C8010E94B00740E065E2C8010E94B00721
:101420004FE166E2C8010E94B00741E467E2C801EB
:101430000E94B00740E068E2C8010E94B00749E599
:1014400069E2C8010E94B0074FE76AE2C8010E9442
:10145000B0074FE36BE2C8010E94B00741E86CE2BD
:10146000C8010E94B00745E36DE2C8010E94B007C1
:1014700049E06EE2C8010E94B00719828DB79EB79D
:10148000815491090FB6F8949EBF0FBE8DBFADB7C2
:10149000BEB7119681E4FE01319601900D928A95B6
:1014A000E1F7C8010E94DD080FB6F894DEBF0FBE59
:1014B000CDBFCF5BDF4F0FB6F894DEBF0FBECDBF01
:1014C000DF91CF911F910F910895CF93DF93EC019E
:1014D0002A9A85E090E00E94CD062A988AE090E062
:1014E0000E94CD062A9A89E290E00E94CD062A98B1
:1014F0001C99FECF60E3CE010E948F0B1C99FECF9A
:101500002A9ACE01DF91CF910C944D09CF93DF93AE
:10151000EC016B834C830E94700B60E082E00E94C0
:101520003A07CE010E94650A40E66EE3CE01DF91E4
:10153000CF910C94B0070F931F93CF93DF93EC01DF
:101540008B0140EC6BE30E94F407982F9F7759F0D2
:1015500087FD09C040E86FE3CE010E94F407F8015F
:1015600080838E3318F0F80110821FC0282F4FE3BC
:10157000B8016F5F7F4FCE010E94060840E86FE31D
:10158000CE010E94F407F80187AF40E86FE3CE0177
:101590000E94F407F801E05CFF4F982F9F7790833B
:1015A000881F8827881FF80186AF66E3CE010E9456
:1015B000ED076AE3CE010E94ED07CE010E94CA0842
:1015C000F8018081DF91CF911F910F91089580E004
:1015D0000E94D10F8091FF028130A9F46BEB72E081
:1015E0008DEF92E00E949B0A882369F08091F902B6
:1015F000882349F0E0910703F0910803309719F030
:101600008BEB92E0099542E050E067EE7AE080E0F3
:101610000C94B10FCF93DF93EC0101960E94A507C4
:101620001C861B86DF91CF9108950F931F93CF9354
:10163000DF93EC018C010F5F1F4FC8010E94860AE7
:1016400082E390E00E94CD06C8010E94CA0842E0F1
:1016500050E067EE7AE080E00E94B10F1882DF91DF
:10166000CF911F910F9108950FB6F894A89580918E
:101670006000886180936000109260000FBE98E067
:1016800088E10FB6F894A895809360000FBE909300
:101690006000FFCF8EE480937C0062E070E080E029
:1016A00090E00E94910680917A00806480937A0095
:1016B00080917A0086FDFCCF20917800809179009E
:1016C00030E0382B40E050E060E070E381E190E0F2
:1016D0000E94EA11C90108958CEF92E00C940A0B64
:1016E00061E08AE00E94760761E08AE00E943A07A2
:1016F00061E08BE00E943A0760E08CE00E943A07CC
:1017000061E08DE00E943A0761E08DE00E9476077B
:1017100060E08BE00E94760780E58CBD08956EBD89
:101720000DB407FEFDCF8EB508950F93CF93DF93D1
:101730001F92CDB7DEB7FC012185328537FD08C089
:101740006581768107814385CE0101960E946010F4
:101750000F90DF91CF910F9108950F93CF93DF9367
:10176000CDB7DEB7C055D1090FB6F894DEBF0FBEB6
:10177000CDBFFC0145815681008527816481CE0162
:1017800001960E946F0FCE0101960E94990EC05BD8
:10179000DF4F0FB6F894DEBF0FBECDBFDF91CF9104
:1017A0000F910895CF93DF93EC01E881F981309791
:1017B00011F08C810995CE01DF91CF910C94AD0B86
:1017C000EF92FF920F93CF93DF931F92CDB7DEB7C7
:1017D0007C01DC011296ED91FC911397309719F082
:1017E00014968C910995C7010E94AD0BF7012185D4
:1017F000328537FD08C06581768107814385CE013A
:1018000001960E948E100F90DF91CF910F91FF9063
:10181000EF900895DC0190E01796EC9117979E17D2
:1018200098F4F0E0292F30E03197E21BF30BE60F3C
:10183000F71F808115964D915C911697FA01E20F82
:10184000F31F80839F5FE8CF0895CF93DF93CDB7D9
:10185000DEB7C055D1090FB6F894DEBF0FBECDBFBD
:10186000FC012081273008F4A8C0BC01CE010196FC
:101870000E940F0E2B968FAD2B9781119EC08091E9
:101880000A0390910B03009729F0BE016F5F7F4F11
:101890000E94061120910D0321FF05C028968FADEF
:1018A000289781FF8AC02A968FAD2A97813089F5C3
:1018B00024962EAD3FAD24972115310531F42D9698
:1018C0008FAD2D97882341F078C080910C0390E074
:1018D0002817390709F071C02C968FAD2C9790E02E
:1018E0002817390709F069C02D96EFAD2D97809123
:1018F0000201E81708F061C0F0E0EE0FFF1FED5F96
:10190000FE4F80819181009709F457C00E94D20B4D
:1019100054C0813058F4E0911403F09115033097CE
:1019200009F44BC0CE010196099547C0823009F0F9
:1019300044C024964EAD5FAD249780910C0390E097
:1019400048175907D1F52C968FAD2C9790E0481782
:10195000590799F52D96EFAD2D9730910201E317B8
:1019600060F5F0E0EE0FFF1FED5FFE4F808191818B
:10197000009719F120FF11C040910E0329962FAD59
:101980002997421751F0383028F080911101909139
:10199000120111C080E090E00EC060963FAD6097EC
:1019A000FC012781321307C02F966EAD7FAD2F97B4
:1019B0000E94E00B02C00E94AD0BC05BDF4F0FB670
:1019C000F894DEBF0FBECDBFDF91CF9108950F9386
:1019D000CF93DF93CDB7DEB72A970FB6F894DEBF6B
:1019E0000FBECDBF8BEA8F838DEC888702E028E0A5
:1019F00040E0BE01695F7F4FCE010A960E948E10C3
:101A0000198601E020E040E0BE01675F7F4FCE0114
:101A10000A960E948E1085EB8D8387E48E8302E008
:101A200022E040E0BE016B5F7F4FCE010A960E942C
:101A30008E10809166001B828C8324E040E0BE0102
:101A40006D5F7F4FCE010A960E948E108FEF8983C3
:101A50001A8226E040E0BE016F5F7F4FCE010A96FA
:101A60000E948E102A960FB6F894DEBF0FBECDBF2F
:101A7000DF91CF910F910895EF92FF920F931F93F3
:101A8000CF93DF9300D01F92CDB7DEB77C0102E089
:101A900028E040E0BE016F5F7F4FCE0103960E94B9
:101AA000601089818B3A19F48A818D3C19F0C70145
:101AB0000E94E70C10E080910201181760F4E12FFA
:101AC000F0E0EE0FFF1FED5FFE4F808191810E94DD
:101AD000950B1F5FF0CFF70182818093050340E0F3
:101AE00060E08CEF92E00E94150B40EC6EE38DEF0E
:101AF00092E00E94B00764E571E085E192E00E9407
:101B00006C0585E29CE090930803809307030F9097
:101B10000F900F90DF91CF911F910F91FF90EF9059
:101B20000895EAE0F3E0138612861182108211868E
:101B30001086138208950895AF92BF92CF92DF92DC
:101B4000EF92FF920F931F93CF93DF93DC01A95B7A
:101B5000BF4FE0911203F0911303662321F031850A
:101B60002C9123272C932C91EC01C85BDF4F3881FB
:101B70003227438534273883259732853227488199
:101B800059814327598348832796388132274085D6
:101B90003427388321963881322747813427388388
:101BA0002396788106E113E0A12CB12C30E07C0172
:101BB0004CE4E40EF11CA716C8F4E70148815981F2
:101BC0004A0D5B1D6F01C30ED11CEA015881E6016D
:101BD000488145274227E80149938E013F5F3B300A
:101BE00009F430E0DFEFAD1ABD0AE5CF772339F015
:101BF000EC01C45BDF4F46E153E059834883611138
:101C000003C0818528272C93DF91CF911F910F91DD
:101C1000FF90EF90DF90CF90BF90AF900895CF925C
:101C2000DF92EF92FF920F931F93CF93DF93FC010C
:101C3000DB018D91EF01899390E0981721F02D91B0
:101C400029939F5FFACF9381DF01AB5BBF4F292FB1
:101C500022952F702C936F0126E4C20ED11C9F7029
:101C6000D6019C93948111969C9395811196292F6E
:101C70002F772C931196EF01CF5BDF4F8F010D5B18
:101C80001F4FBF01665B7F4FAF01455B5F4F97FF03
:101C900016C091E09C93218132813227232732277D
:101CA0003983288326813781322723273227E80189
:101CB000398328839185EB01988392850EC01C920D
:101CC000218130E039832883228130E0E8013983A3
:101CD00028839681EB0198839781EA0198839F017D
:101CE000245B3F4FAF01485F5F4FE9015983488351
:101CF0002E5F3F4F8750E90188838C91811110C07E
:101D0000D6018C9181FF0CC061E0CF01DF91CF91B2
:101D10001F910F91FF90EF90DF90CF900C949C0D4E
:101D2000DF91CF911F910F91FF90EF90DF90CF90B7
:101D30000895CF92DF92EF92FF920F931F93CF936C
:101D4000DF93CDB7DEB7C154D1090FB6F894DEBF2B
:101D50000FBECDBF8C01FC01E15BFF4F808198017C
:101D6000225B3F4F7901E754F109D901811110C07D
:101D70008C9190E0A801445B5F4F0197D8F0DA01A5
:101D80002D913C91D901A80FB91F2C912193F5CF2A
:101D90003C9180E090E0A801445B5F4F831750F4D2
:101DA000DA016D917C91DB01A80FB91F2C91219371
:101DB0000196F4CF6801B6E4CB0ED11CF601808108
:101DC00081FF04C060E0C8010E949C0DD7018C9186
:101DD000895FF8018083EB5BFF4F8081F0E18F9F8B
:101DE000C0011124D6019C919F70892BF801838337
:101DF000E95BFF4F8081D80114968C93149732963B
:101E0000108238978081F8018183ED5BFF4F8081DC
:101E100012968C93129735968081F8018583E65B44
:101E2000FF4F808116968C9331968081F8018783CD
:101E300093E0E92E81E4F801DE01119601900D9204
:101E40008A95E1F72DB73EB7215431090FB6F894C2
:101E50003EBF0FBE2DBFADB7BEB7119681E4FE01E8
:101E6000319601900D928A95E1F78DEF92E00E94F4
:101E7000DD08F82E0FB6F894DEBF0FBECDBF81117E
:101E80000FC0EA94EE2061F06091050370E0660FE8
:101E9000771F072E000C880B990B0E949106CACF62
:101EA0006F2D70E04AE050E085E192E00E940F065D
:101EB00066E471E085E192E00E946C058F2DCF5BB6
:101EC000DF4F0FB6F894DEBF0FBECDBFDF91CF91CD
:101ED0001F910F91FF90EF90DF90CF900895DF92C8
:101EE000EF92FF920F931F93CF93DF93EC01D62EC7
:101EF0007A01122F0E949B0DFE01EF5BFF4F1182B2
:101F00001082EAE0F3E09281DE01AD5BBF4F292F42
:101F100030E011963C932E9312961C921196838179
:101F20008F708C9384818F5F8483FE01E95BFF4F08
:101F3000808331961082329690833196D082339688
:101F400010833297F182E082C15BDF4F0883DF911B
:101F5000CF911F910F91FF90EF90DF90089508951A
:101F600008958230E8F4E82FF0E0EE0FFF1FE15D06
:101F7000FE4F71836083813041F0809169008C7FD6
:101F8000482B40936900E89A089580916900837F07
:101F9000440F551F440F551F482B40936900E99A81
:101FA0000895823078F4813011F0E89801C0E99802
:101FB000E82FF0E0EE0FFF1FE15DFE4F80EB9FE0AA
:101FC0009183808308951F920F920FB60F92112470
:101FD0002F933F934F935F936F937F938F939F9331
:101FE000AF93BF93EF93FF93E0912F01F0913001F6
:101FF0000995FF91EF91BF91AF919F918F917F9143
:102000006F915F914F913F912F910F900FBE0F9065
:102010001F9018951F920F920FB60F9211242F93B5
:102020003F934F935F936F937F938F939F93AF9360
:10203000BF93EF93FF93E0913101F0913201099545
:10204000FF91EF91BF91AF919F918F917F916F9190
:102050005F914F913F912F910F900FBE0F901F9066
:1020600018951F920F920FB60F9211240F900FBE6A
:102070000F901F9018951F920F920FB60F92112478
:102080008F939F93AF93BF93809153039091540389
:10209000A0915503B09156030196A11DB11D8093E7
:1020A000530390935403A0935503B0935603BF91E9
:1020B000AF919F918F910F900FBE0F901F90189529
:1020C000CF92DF92EF92FF920F931F93CF93DF9304
:1020D00041111AC07B01F8946B0110E0C22FD0E0CF
:1020E000C61BD70B802F96012E193F0920173107E9
:1020F00048F4CE018C0D9D1D0E942312F6018193A0
:102100006F01F0CF789401C080E0DF91CF911F91F3
:102110000F91FF90EF90DF90CF900895CF92DF92D4
:10212000EF92FF920F931F93CF93DF93411119C04A
:10213000F8946B01E12CF12C10E0C22FD0E0802F3D
:10214000E016F10660F4F60161916F01CE018E0D8B
:102150009F1D0E942B12FFEFEF1AFF0AF0CF789419
:1021600001C080E0DF91CF911F910F91FF90EF9020
:10217000DF90CF900895EF92FF920F931F93CF932C
:10218000DF937C018B01C0915703D0E00E94600671
:1021900023E0CC0FDD1F2A95E1F7CE0DDF1D69830B
:1021A0007A838B839C8320915703F801E85BFF4F70
:1021B0003081822F90E0F70148E0249FE00DF11D6F
:1021C00011243583D801AD5BBF4F2C912683149623
:1021D0002C912783F801E65BFF4F408101969C011B
:1021E00053E0220F331F5A95E1F7F701E20FF31F77
:1021F000408364E170E00E94B41180935703DF9143
:10220000CF911F910F91FF90EF9008954F925F92A1
:102210006F927F928F929F92AF92BF92CF92DF92F6
:10222000EF92FF920F931F93CF93DF93FC01EF5533
:10223000FF4F2081222309F486C020910C0330E057
:10224000FB01EF5BFF4F408151814217530709F4B7
:102250007AC04B0125E4820E911CF4013081FC010F
:102260002081321708F06FC0EB018C017C012C013A
:10227000F0EA4F0E511C3B012AE4620E711C6B0107
:1022800088E4C80ED11C5B01E7E4AE0EB11CF70177
:102290009085F3018081981739F0F8E0EF0EF11C7A
:1022A0004E145F04A1F71FC0F7019581F6018081EC
:1022B0009813F3CFF7019781F50180819813EDCF43
:1022C0000E946006F7012181328143815481DC0143
:1022D000CB01821B930BA40BB50B803D9740A1054E
:1022E000B105D8F630C0FE01ED5BFF4F80910C03C5
:1022F00090E091838083F40180818F5F808360917F
:10230000050370E0660F771F072E000C880B990BF2
:102310000E949106CE010E94990E8823A1F0BE0171
:10232000C801DF91CF911F910F91FF90EF90DF9047
:10233000CF90BF90AF909F908F907F906F905F9065
:102340004F900C94BB10DF91CF911F910F91FF9094
:10235000EF90DF90CF90BF90AF909F908F907F9045
:102360006F905F904F90089597FB072E16F400949E
:1023700007D077FD09D00E94091207FC05D03EF472
:10238000909581959F4F0895709561957F4F089521
:10239000A1E21A2EAA1BBB1BFD010DC0AA1FBB1F69
:1023A000EE1FFF1FA217B307E407F50720F0A21BDB
:1023B000B30BE40BF50B661F771F881F991F1A9448
:1023C00069F760957095809590959B01AC01BD0172
:1023D000CF010895052E97FB1EF400940E94011270
:1023E00057FD07D00E94C81107FC03D04EF40C948F
:1023F000011250954095309521953F4F4F4F5F4FBB
:10240000089590958095709561957F4F8F4F9F4F60
:102410000895AA1BBB1B51E107C0AA1FBB1FA6172B
:10242000B70710F0A61BB70B881F991F5A95A9F77D
:1024300080959095BC01CD010895EE0FFF1F05908A
:10244000F491E02D0994F999FECF92BD81BDF89ADF
:10245000992780B50895262FF999FECF1FBA92BD0E
:1024600081BD20BD0FB6F894FA9AF99A0FBE019675
:062470000895F894FFCF6F
:1024760007080E0802FB01EE01E101D401C701B90C
:1024860001AC019F0192018501760168015A0100A4
:10249600000001000000010000099900000888B052
:1024A6000FB00F00000000B40322057503010447B6
:1024B60003610353030D0A006E616E00696E6600C8
:0A24C6006F766600686965720A000F
:00000001FF
