:100000000C945D000C9485000C9485000C94850084
:100010000C9485000C9485000C9485000C9485004C
:100020000C9485000C9485000C9485000C9485003C
:100030000C9485000C9485000C9485000C9485002C
:100040000C94DC020C9485000C94AA020C9484029B
:100050000C9485000C9485000C9485000C9485000C
:100060000C9485000C9485000000000024002700FB
:100070002A0000000000250028002B0004040404CE
:100080000404040402020202020203030303030342
:10009000010204081020408001020408102001021F
:1000A00004081020000000080002010000030407FB
:1000B00000000000000000005A0411241FBECFEF12
:1000C000D8E0DEBFCDBF11E0A0E0B1E0E2E6F9E0AC
:1000D00002C005900D92AA32B107D9F721E0AAE239
:1000E000B1E001C01D92A23DB207E1F710E0CDE5FD
:1000F000D0E004C02197FE010E94A904CC35D107AD
:10010000C9F70E9426030C94AF040C940000E1EBA5
:10011000F0E02491EDE9F0E09491E9E8F0E0E49179
:10012000EE23C9F0222339F0233001F1A8F4213065
:1001300019F1223029F1F0E0EE0FFF1FEE58FF4FCA
:10014000A591B4912FB7F894EC91811126C09095A8
:100150009E239C932FBF08952730A9F02830C9F023
:10016000243049F7209180002F7D03C0209180002A
:100170002F7720938000DFCF24B52F7724BDDBCFEE
:1001800024B52F7DFBCF2091B0002F772093B000B6
:10019000D2CF2091B0002F7DF9CF9E2BDACFAF9236
:1001A000BF92CF92DF92EF92FF920F931F93CF9364
:1001B000DF936C017B018B01040F151FEB015E01C6
:1001C000AE18BF08C017D10759F06991D601ED915B
:1001D000FC910190F081E02DC6010995892B79F7FA
:1001E000C501DF91CF911F910F91FF90EF90DF90AC
:1001F000CF90BF90AF900895FC01538D448D252F73
:1002000030E0842F90E0821B930B541710F0CF96B0
:10021000089501970895FC01918D828D981761F0E2
:10022000A28DAE0FBF2FB11D5D968C91928D9F5FF9
:100230009F73928F90E008958FEF9FEF0895FC01D8
:10024000918D828D981731F0828DE80FF11D858D8B
:1002500090E008958FEF9FEF0895FC01918D228D1E
:10026000892F90E0805C9F4F821B91098F739927A3
:10027000089585E391E00E942D0121E0892B09F486
:1002800020E0822F089580E090E0892B29F00E94E1
:10029000390181110C9400000895FC01A48DA80F70
:1002A000B92FB11DA35ABF4F2C91848D90E00196B8
:1002B0008F739927848FA689B7892C93A089B189D8
:1002C0008C91837080648C93938D848D981306C079
:1002D0000288F389E02D80818F7D80830895EF92DD
:1002E000FF920F931F93CF93DF93EC0181E0888FF0
:1002F0009B8D8C8D98131AC0E889F989808185FFC0
:1003000015C09FB7F894EE89FF896083E889F98961
:1003100080818370806480839FBF81E090E0DF9163
:10032000CF911F910F91FF90EF900895F62E0B8DB6
:1003300010E00F5F1F4F0F731127E02E8C8D8E1171
:100340000CC00FB607FCFACFE889F989808185FFD8
:10035000F5CFCE010E944D01F1CFEB8DEC0FFD2FBB
:10036000F11DE35AFF4FF0829FB7F8940B8FEA8993
:10037000FB8980818062CFCFCF93DF93EC01888DA2
:100380008823B9F0AA89BB89E889F9898C9185FD10
:1003900003C0808186FD0DC00FB607FCF7CF8C919E
:1003A00085FFF2CF808185FFEDCFCE010E944D0108
:1003B000E9CFDF91CF9108953FB7F89480912F0155
:1003C00090913001A0913101B091320126B5A89BE6
:1003D00005C02F3F19F00196A11DB11D3FBFBA2FD7
:1003E000A92F982F8827BC01CD01620F711D811D97
:1003F000911D43E0660F771F881F991F4A95D1F71B
:1004000008958F929F92AF92BF92CF92DF92EF9218
:10041000FF924B015C010E94DC016B017C010E9498
:10042000DC016C197D098E099F09683E73408105C6
:100430009105A8F321E0821A9108A108B10888EE7D
:10044000C80E83E0D81EE11CF11C81149104A104A4
:10045000B10429F7FF90EF90DF90CF90BF90AF905D
:100460009F908F900895FC0101900020E9F731974B
:10047000AF01481B590BBC0185E391E00C94CF0000
:100480008F929F92AF92BF920F931F93CF93DF9360
:10049000CDB7DEB7A1970FB6F894DEBF0FBECDBFC4
:1004A00019A2423008F44AE08E010F5D1F4F842EDE
:1004B000912CB12CA12CA50194010E948704E62F58
:1004C000B901CA01EA30F4F4E05DD801EE938D0180
:1004D000232B242B252B79F790E080E0109719F03F
:1004E000CD010E943302A1960FB6F894DEBF0FBE75
:1004F000CDBFDF91CF911F910F91BF90AF909F9093
:100500008F900895E95CE1CF1F920F920FB60F9282
:1005100011242F933F934F935F936F937F938F9308
:100520009F93AF93BF93EF93FF9385E391E00E9476
:100530004D01FF91EF91BF91AF919F918F917F916D
:100540006F915F914F913F912F910F900FBE0F9040
:100550001F9018951F920F920FB60F9211242F9390
:100560008F939F93EF93FF93E0914501F0914601A4
:100570008081E0914B01F0914C0182FD1BC0908184
:1005800080914E018F5F8F7320914F01821741F050
:10059000E0914E01F0E0EB5CFE4F958F80934E01B1
:1005A000FF91EF919F918F912F910F900FBE0F9020
:1005B0001F9018958081F4CF1F920F920FB60F9263
:1005C00011242F933F938F939F93AF93BF93809169
:1005D0002B0190912C01A0912D01B0912E01309111
:1005E0002A0126E0230F2D3758F50296A11DB11DD3
:1005F00020932A0180932B0190932C01A0932D012D
:10060000B0932E0180912F0190913001A091310182
:10061000B09132010196A11DB11D80932F019093DD
:100620003001A0933101B0933201BF91AF919F91FE
:100630008F913F912F910F900FBE0F901F901895A3
:1006400029E8230F0396A11DB11DD2CF789484B55C
:10065000826084BD84B5816084BD85B5826085BDBE
:1006600085B5816085BD80916E00816080936E004C
:10067000109281008091810082608093810080913E
:1006800081008160809381008091800081608093EF
:1006900080008091B10084608093B1008091B000AF
:1006A00081608093B00080917A00846080937A00AA
:1006B00080917A00826080937A0080917A008E7FA8
:1006C00080937A0080917A00806880937A001092FB
:1006D000C100EDE9F0E02491E9E8F0E0849188239D
:1006E00099F090E0880F991FFC01E859FF4FA59100
:1006F000B491FC01EE58FF4F859194918FB7F89417
:10070000EC91E22BEC938FBFE0914501F091460113
:1007100082E08083E0914101F09142011082E091FA
:100720004301F091440187E6808310924D01E091EE
:100730004901F0914A0186E08083E0914701F09100
:100740004801808180618083E0914701F0914801F8
:10075000808188608083E0914701F0914801808129
:1007600080688083E0914701F091480180818F7D0E
:10077000808382E191E00E94330288E191E00E944F
:100780003302109234011092330181E00E948700FD
:1007900068EE73E080E090E00E94010280E00E9439
:1007A000870068EE73E080E090E00E9401028BE138
:1007B00091E00E943302C0903301D09034010D2C9F
:1007C000000CEE08FF084AE0C701B601F7FE0DC0B5
:1007D0006DE285E391E00E946F0166277727CB01E8
:1007E0006C197D098E099F094AE00E94400288E148
:1007F00091E00E943302C0E0D0E068EE73E080E058
:1008000090E00E94010280913301909134010196A1
:1008100090933401809333018BE191E00E94330285
:10082000C0903301D09034010D2C000CEE08FF086D
:100830004AE0C701B601F7FE0DC06DE285E391E025
:100840000E946F0166277727CB016C197D098E09FD
:100850009F094AE00E94400288E191E00E94330231
:1008600080913301909134010A97C9F480E291E0BC
:100870000E94330288E191E00E94330264EF71E04C
:1008800080E090E00E94010288E198E00FB6F894C1
:10089000A895809360000FBE90936000FFCF2097D3
:1008A00009F4ABCF0E943901882309F4A6CF0E9436
:1008B0000000A3CFE5E3F1E01382128288EE93E01B
:1008C000A0E0B0E084839583A683B78384E091E0C1
:1008D0009183808385EC90E09587848784EC90E019
:1008E0009787868780EC90E0918B808B81EC90E0FD
:1008F000938B828B82EC90E0958B848B86EC90E0DE
:10090000978B868B118E128E138E148E0895A1E212
:100910001A2EAA1BBB1BFD010DC0AA1FBB1FEE1F79
:10092000FF1FA217B307E407F50720F0A21BB30BC4
:10093000E40BF50B661F771F881F991F1A9469F740
:1009400060957095809590959B01AC01BD01CF019C
:100950000895EE0FFF1F0590F491E02D0994F8948F
:02096000FFCFC7
:10096200000000006F01CF00FC00BC012D010B0153
:100972001F015374617274000D0A0069203D20004A
:0A0982005761746368646F6700003A
:00000001FF
