:100000000C9461000C941B160C9442160C948900FD
:100010000C9489000C9489000C9479160C94890036
:100020000C9489000C9499160C9489000C94890006
:100030000C9489000C9489000C9489000C9489001C
:100040000C949E080C9489000C9489000C948900EF
:100050000C9489000C9489000C9489000C948900FC
:100060000C944B190C948900000000080002010058
:100070000003040700000000000000000102040863
:100080001020408001020408102001020408102002
:10009000040404040404040402020202020203032E
:1000A0000303030300000000250028002B000000CC
:1000B0000000240027002A00D2019F04C810FE126D
:1000C000E31511241FBECFEFD8E0DEBFCDBF11E096
:1000D000A0E0B1E0E2E5F6E302C005900D92A8369B
:1000E000B107D9F724E0A8E6B1E001C01D92A73816
:1000F000B207E1F710E0C1E6D0E004C02197FE01AD
:100100000E94FC1ACC35D107C9F70E948F080C94C5
:10011000271B0C940000CF93DF931F92CDB7DEB75F
:100120008983BE016F5F7F4F80910E0190910F0117
:100130000E943C110F90DF91CF910895909107019B
:10014000891748F4E82FF0E0EE0FFF1FE85FFE4F3D
:1001500080819181089580E090E00895CF9361E0DF
:1001600084E00E94E20961E084E00E941E0A89E7BF
:1001700093E00E94AF1283E00E948B00C6E061E032
:1001800084E00E941E0A62E370E080E090E00E943A
:10019000190960E084E00E941E0A62EC71E080E0D0
:1001A00090E00E941909C15051F781E080939801B5
:1001B0008BE10E949E000E942E1182EC93E00E942F
:1001C000A715C2E088E691E00E94EE0A019789F443
:1001D00083E0809398018BE10E949E000E942E1183
:1001E00063E088E691E00E941E0B80939901C0E0D5
:1001F00014C0C09398018BE10E949E000E942E11B2
:10020000C0937E0341E06CE271E08BE693E00E94D4
:10021000F80F81E080937E03D5CF8C2F0E949E0043
:100220000E942E1164E670E080E090E00E941909BF
:10023000CF5FCB3191F7CF910895CF93809100019B
:1002400090910101A0910201B0910301892B8A2BA9
:100250008B2B09F045C0609104017091050188EE77
:1002600093E00E94881A20917F0330918003629F5F
:10027000C001639F900D729F900D1124A0E0B0E02B
:100280008093000190930101A0930201B0930301B8
:100290008CE693E00E946C0C10926B0381E00E944C
:1002A0008B008BE00E949E000E942E118CE00E9429
:1002B0009E000E942E1181E10E949E000E942E113C
:1002C00083E10E949E000E942E1183E00E948B0019
:1002D00060ED77E080E090E00E941909C1E001C084
:1002E000C0E08091000190910101A0910201B091C4
:1002F00003010197A109B1098093000190930101C5
:10030000A0930201B093030180E00E949802209123
:100310009D0130919E0180919A0190919B01281B33
:10032000390B8091060190E044275527481B590B53
:10033000241735071CF082179307CCF4C11109C0AC
:100340008CE693E00E946C0C10926B0381E00E949B
:100350008B0081E10E949E000E942E1180919D01E0
:1003600090919E0190939B0180939A0102C0C130AD
:1003700081F482E00E948B0064E670E080E090E00F
:100380000E94190981E080936B038CE693E00E9440
:10039000690D609104017091050189E793E0CF91A7
:1003A0000C94431288E691E00C94540AFB0180817E
:1003B00080930601089581E992E00C9466118EEA1B
:1003C00091E00C946611CF92DF92EF92FF920F931F
:1003D000CF93DF93CDB7DEB7C055D1090FB6F894F0
:1003E000DEBF0FBECDBF7B018EE9C82E82E0D82EC6
:1003F00001E0F6012781AB016481CE0101960E94E4
:10040000CC14CE0101960E940614B701C6010E94C9
:100410006611F6018781E80EF11CF70131976081C2
:100420008CE693E00E940E0DC05BDF4F0FB6F89490
:10043000DEBF0FBECDBFDF91CF910F91FF90EF9048
:10044000DF90CF900895EF92FF920F93CF93DF93B9
:10045000CDB7DEB7C055D1090FB6F894DEBF0FBED9
:10046000CDBFE091B002F091B102DB019C9180819F
:10047000981305C011969C9181819817A1F07B017A
:1004800001E02091B202AB016091AF02CE01019672
:100490000E94CC14CE0101960E940614B7018CE68E
:1004A00093E00E94090DC05BDF4F0FB6F894DEBFEA
:1004B0000FBECDBFDF91CF910F91FF90EF900895C8
:1004C000CF93C82F8BE693E00E94A610EC2FF0E0AC
:1004D000EE0FFF1FE85FFE4FA081B18115960D90D2
:1004E000BC91A02D9C930190F081E02D0580F681B8
:1004F000E02D8183CF910895CF93C82F88E691E0B6
:100500000E94AD0BEC2FF0E0EE0FFF1FE85FFE4FF7
:10051000A081B18115960D90BC91A02D9C93019066
:10052000F081E02D0580F681E02D8183CF91089543
:10053000CF93C82F88E691E00E94AD0BBC0180E00C
:1005400090E00E9493072EE03DE242EB5DE30E94C3
:10055000210820E030E040E05FE30E94F8060E94BE
:10056000640760939D0170939E01EC2FF0E0EE0F05
:10057000FF1FE85FFE4FA081B18115960D90BC91E1
:10058000A02D7C930190F081E02D0580F681E02D77
:1005900080919D018183CF910895CF93C82F88E6E4
:1005A00091E00E945A0CEC2FF0E0EE0FFF1FE85F85
:1005B000FE4FA081B18115960D90BC91A02D9C930A
:1005C0000190F081E02D0580F681E02D8183CF91AF
:1005D000089588E691E00E94F80A80939C010895AE
:1005E000CF93C82F88E691E00E94530CEC2FF0E0E7
:1005F000EE0FFF1FE85FFE4FA081B18115960D90B1
:10060000BC91A02D9C930190F081E02D0580F68196
:10061000E02D8183CF910895CF93C82F88E691E094
:100620000E94980BEC2FF0E0EE0FFF1FE85FFE4FEB
:10063000A081B18115960D90BC91A02D9C93019045
:10064000F081E02D0580F681E02D8183CF91089522
:10065000FB01818190E0982F88272081BC01620FE7
:10066000711D88E691E00C94B40BCF93C82F88E6F7
:1006700091E00E949F0BEC2FF0E0EE0FFF1FE85F70
:10068000FE4FA081B18115960D90BC91A02D9C9339
:100690000190F081E02D0580F681E02D8183CF91DE
:1006A0000895FB01818190E0982F88272081BC016B
:1006B000620F711D88E691E00C94E70BCF93C82F71
:1006C00088E691E00E94A60BEC2FF0E0EE0FFF1FF2
:1006D000E85FFE4FA081B18115960D90BC91A02DD1
:1006E0009C930190F081E02D0580F681E02D8183BF
:1006F000CF910895FB01818190E0982F8827208178
:10070000BC01620F711D88E691E00C941D0CCF9323
:10071000DF93E82FF0E0EE0FFF1FE85FFE4F019040
:10072000F081E02DC581D68188E691E00E94A00A83
:100730008883DF91CF910895CF93DF93E82FF0E086
:10074000EE0FFF1FE85FFE4F0190F081E02DC581A5
:10075000D68188E691E00E94190B8883DF91CF91C2
:100760000895EF92FF920F93CF93DF93CDB7DEB74B
:10077000C055D1090FB6F894DEBF0FBECDBFE091D2
:10078000E502F091E602DB019C9180819817A9F0C7
:100790007B0101E02091E702AB016091E402CE0110
:1007A00001960E94CC14CE0101960E940614F70116
:1007B00060818CE693E00E941C0DC05BDF4F0FB69A
:1007C000F894DEBF0FBECDBFDF91CF910F91FF90A8
:1007D000EF900895FB0180818093A001811102C0F8
:1007E00060E001C061E084E00C941E0A0F931F9347
:1007F000CF93DF931F92CDB7DEB7FB0180818130AD
:10080000A1F48B0182E08983BE016F5F7F4F8091ED
:100810000E0190910F010E943C11F801808180939C
:100820009F018BE693E00E94E20F0F90DF91CF9142
:100830001F910F910895FB01808180937E03808139
:10084000811111C080910701843028F080910E0140
:1008500090910F0102C080E090E00E9409118BE6A8
:1008600093E00C94E20F0895CF92DF92EF92FF9203
:10087000CF93DF9360E081E10E94E20961E087E0CD
:100880000E94E20960E087E00E941E0A80E00E9468
:100890009909CAE0D0E0C12CD12C760181E10E94F7
:1008A0009C09092E000CAA0BBB0BC80ED91EEA1E10
:1008B000FB1E62E070E080E090E00E941909219741
:1008C00069F762E087E00E94E20961E081E10E944D
:1008D0001E0AC701B6012AE030E040E050E00E9465
:1008E000B01A68EC7DEA82E090E00E94781A20E07D
:1008F00038E240E050E00E94B01AC901DF91CF9188
:10090000FF90EF90DF90CF900895CF93C82F0E9473
:100910003404EC2FF0E0EE0FFF1FE85FFE4FA081E4
:10092000B18115960D90BC91A02D9C930190F08102
:10093000E02D0580F681E02D8183CF910895E4E1DB
:10094000F3E01182108213821282909178039483D3
:1009500028E431E03683258388E0878381E080873F
:100960002FEF3FEF3287218714861386E7E0F3E00D
:10097000118210821382128241E0490F448344E4C1
:1009800051E05683458344E047838087328721873F
:1009900014861386EAEFF2E011821082138212822B
:1009A00052E0590F548360E471E076836583478396
:1009B00080873287218714861386EDEEF2E011825C
:1009C00010824BE154E05383428343E0490F448358
:1009D0004EE753E05683458387838087328721879C
:1009E00014861386E0EEF2E01182108241EB53E0B0
:1009F0005383428344E0490F448341E753E05683E5
:100A00004583878310861286118614861386E3ED4C
:100A1000F2E0118210821382128245E0490F448372
:100A20004CE753E05683458387838087328721874D
:100A300014861386E5ECF2E0118210821382128292
:100A400046E0490F448342ED52E056834583878355
:100A500080873287218714861386E8EBF2E01182C3
:100A600010821382128247E0490F44834DE753E01E
:100A70005683458387838087328721871486138630
:100A8000EBEAF2E01182108243E252E053834283A8
:100A900048E0490F448342E753E05683458342E0F0
:100AA0004783808762E070E07287618714861386CF
:100AB000EEE9F2E01182108263EE71E073836283EB
:100AC00059E0590F54836BE773E07683658387831E
:100AD000108665E070E07287618714861386E1E90D
:100AE000F2E0118210826BED71E0738362835AE051
:100AF000590F54836FE773E07683658347831086CD
:100B000066E070E07287618714861386E2E8F2E09F
:100B100060E672E071836083138212825CE0590F99
:100B20006BE0690F64836FE872E0768365834783C7
:100B300080873287218714861386E3E7F2E065E831
:100B400074E07183608313821282548360E872E0E0
:100B5000768365834783808732872187148613864F
:100B6000E6E6F2E0118210826AEE73E0738362833C
:100B70005DE0590F548360EA71E076836583878373
:100B800080873287218714861386E9E5F2E0118297
:100B9000108266ED71E0738362835EE0590F5483C7
:100BA00066E071E0768365838783108662E270E099
:100BB0007287618714861386ECE4F2E0118210825A
:100BC00066EF73E0738362835FE0590F54836FE9CC
:100BD00071E07683658387838087328721871486D7
:100BE0001386EDE3F2E06CE772E0718360831382B9
:100BF000128250E1590F54836AE472E07683658370
:100C0000478380873287218714861386EEE2F2E0DD
:100C100068E972E0718360831382128251E1590F97
:100C200054836BE372E076836583478380873287E2
:100C3000218714861386E0E2F2E06DEC72E07183A6
:100C400060831382128252E1590F54836DE272E085
:100C5000768365838783808732872187148613860E
:100C6000E3E1F2E069EE72E0718360831382128245
:100C700053E1590F54836CE971E076836583878370
:100C800080873287218714861386E4E0F2E060EFE4
:100C900072E0718360831382128254E1590F54838E
:100CA00061E172E07683658347838087328721879D
:100CB00014861386E5EFF1E06CE073E071836083E6
:100CC00068E273E07383628355E1590F548362E0F5
:100CD00072E0768365834783808732872187148615
:100CE0001386E6EEF1E065E373E07183608361E50E
:100CF00073E07383628356E1590F548363EF71E0AD
:100D0000768365834783808732872187148613869D
:100D1000E7EDF1E06EE573E0718360836AE773E00D
:100D20007383628357E1590F548364EE71E07683D5
:100D30006583478380873287218714861386E9EC91
:100D4000F1E067E873E0718360831382128258E1F7
:100D5000590F548366ED71E07683658387838087BE
:100D60003287218714861386EBEBF1E06CE973E0A0
:100D7000718360831382128259E1590F548368ECA6
:100D800071E0768365838783808732872187148625
:100D90001386EEEAF1E0118210826FED71E0738349
:100DA00062835AE1590F548364E071E0768365836E
:100DB0004783108640E250E05287418714861386AD
:100DC000E1EAF1E011821082138212824CE1490FB4
:100DD00040937803955E948348E951E056834583B8
:100DE0008783808732872187148613860895505819
:100DF000BB27AA270E940F070C94E7070E94D90778
:100E000038F00E94E00720F039F49F3F19F426F4EF
:100E10000C94D6070EF4E095E7FB0C94D007E92F6D
:100E20000E94F80758F3BA176207730784079507FB
:100E300020F079F4A6F50C941A080EF4E0950B2E28
:100E4000BA2FA02D0B01B90190010C01CA01A0011C
:100E50001124FF27591B99F0593F50F4503E68F177
:100E60001A16F040A22F232F342F4427585FF3CFB8
:100E7000469537952795A795F0405395C9F77EF489
:100E80001F16BA0B620B730B840BBAF09150A1F0D2
:100E9000FF0FBB1F661F771F881FC2F70EC0BA0F58
:100EA000621F731F841F48F4879577956795B795E0
:100EB000F7959E3F08F0B0CF9395880F08F09927DB
:100EC000EE0F9795879508950E94000888F09F5728
:100ED00098F0B92F9927B751B0F0E1F0660F771F5E
:100EE000881F991F1AF0BA95C9F714C0B13091F054
:100EF0000E941A08B1E008950C941A08672F782F01
:100F00008827B85F39F0B93FCCF386957795679518
:100F1000B395D9F73EF490958095709561957F4F84
:100F20008F4F9F4F0895E89409C097FB3EF490952A
:100F30008095709561957F4F8F4F9F4F9923A9F0B2
:100F4000F92F96E9BB279395F69587957795679541
:100F5000B795F111F8CFFAF4BB0F11F460FF1BC085
:100F60006F5F7F4F8F4F9F4F16C0882311F096E918
:100F700011C0772321F09EE8872F762F05C06623C6
:100F800071F096E8862F70E060E02AF09A95660F7F
:100F9000771F881FDAF7880F9695879597F9089538
:100FA00097F99F6780E870E060E008959FEF80EC1C
:100FB000089500240A9416161706180609060895BF
:100FC00000240A9412161306140605060895092E25
:100FD0000394000C11F4882352F0BB0F40F4BF2B94
:100FE00011F460FF04C06F5F7F4F8F4F9F4F0895D4
:100FF00057FD9058440F551F59F05F3F71F04795CA
:10100000880F97FB991F61F09F3F79F087950895AE
:10101000121613061406551FF2CF4695F1DF08C0CD
:10102000161617061806991FF1CF869571056105EA
:1010300008940895E894BB2766277727CB0197F992
:1010400008950E9434080C94E7070E94D90738F0ED
:101050000E94E00720F0952311F00C94D0070C9427
:10106000D60711240C941B080E94F80770F3959F73
:10107000C1F3950F50E0551F629FF001729FBB278F
:10108000F00DB11D639FAA27F00DB11DAA1F649F2B
:101090006627B00DA11D661F829F2227B00DA11DDE
:1010A000621F739FB00DA11D621F839FA00D611D64
:1010B000221F749F3327A00D611D231F849F600D85
:1010C000211D822F762F6A2F11249F5750409AF0AE
:1010D000F1F088234AF0EE0FFF1FBB1F661F771F3A
:1010E000881F91505040A9F79E3F510580F00C9405
:1010F000D0070C941B085F3FE4F3983ED4F3869529
:1011000077956795B795F795E7959F5FC1F7FE2BA4
:10111000880F911D9695879597F9089508950E94D7
:101120005E090E948E080E94AE00C0E0D0E00E94DE
:101130001D012097E1F30E940000F9CF1F920F924A
:101140000FB60F9211242F933F938F939F93AF93DA
:10115000BF938091220390912303A0912403B09127
:1011600025033091210326E0230F2D3720F402962A
:10117000A11DB11D05C029E8230F0396A11DB11DB6
:10118000209321038093220390932303A0932403AD
:10119000B09325038091260390912703A091280303
:1011A000B09129030196A11DB11D80932603909350
:1011B0002703A0932803B0932903BF91AF919F9178
:1011C0008F913F912F910F900FBE0F901F90189508
:1011D0002FB7F89460912203709123038091240328
:1011E000909125032FBF08953FB7F894809126036F
:1011F00090912703A0912803B091290326B5A89BBD
:1012000005C02F3F19F00196A11DB11D3FBFBA2F98
:10121000A92F982F8827820F911DA11DB11DBC01F8
:10122000CD0143E0660F771F881F991F4A95D1F7BC
:1012300008958F929F92AF92BF92CF92DF92EF92DA
:10124000FF926B017C010E94F4084B015C01C11408
:10125000D104E104F10401F10E94E7150E94F408B1
:10126000DC01CB0188199909AA09BB09883E934082
:10127000A105B10560F321E0C21AD108E108F10827
:1012800088EE880E83E0981EA11CB11CC114D10405
:10129000E104F10419F7DBCFFF90EF90DF90CF90DE
:1012A000BF90AF909F908F9008958330910528F064
:1012B000880F991F04970197F1F70895789484B5E2
:1012C000826084BD84B5816084BD85B5826085BD42
:1012D00085B5816085BDEEE6F0E080818160808328
:1012E000E1E8F0E01082808182608083808181600B
:1012F0008083E0E8F0E0808181608083E1EBF0E0D2
:10130000808184608083E0EBF0E080818160808375
:10131000EAE7F0E08081846080838081826080835E
:1013200080818E7F80838081806880831092C1005D
:1013300008958093500108958E3008F08E502091CA
:10134000500190E4299F900111248770822B809393
:101350007C0080917A00806480937A0080917A008A
:1013600086FDFCCF809178002091790090E0922B4F
:101370000895833081F028F4813099F08230A1F013
:1013800008958730A9F08830B9F08430D1F4809185
:1013900080008F7D03C0809180008F7780938000D4
:1013A000089584B58F7702C084B58F7D84BD08957C
:1013B0008091B0008F7703C08091B0008F7D8093C3
:1013C000B0000895CF93DF9390E0FC01E458FF4F05
:1013D0002491FC01E057FF4F8491882361F190E054
:1013E000880F991FFC01E255FF4FC591D491FC0174
:1013F000EC55FF4FA591B491611109C09FB7F894C6
:101400008881209582238883EC912E230BC0623043
:1014100061F49FB7F8948881322F309583238883B5
:10142000EC912E2B2C939FBF06C08FB7F894E881C8
:101430002E2B28838FBFDF91CF9108951F93CF93D9
:10144000DF93282F30E0F901E859FF4F8491F9012B
:10145000E458FF4FD491F901E057FF4FC491CC23DA
:10146000C1F0162F81110E94B909EC2FF0E0EE0FA8
:10147000FF1FEC55FF4FA591B4919FB7F894111140
:1014800004C08C91D095D82302C0EC91DE2BDC9364
:101490009FBFDF91CF911F910895DC01ED91FC91E9
:1014A0000190F081E02D0994FC0186E390E09183A6
:1014B00080831586148681E090E09787868782E096
:1014C00090E0918B808B83E090E0938B828B84E023
:1014D00090E0958B848B85E090E0978B868B86E0FF
:1014E00090E0918F808F87E090E0938F828F88E0EB
:1014F00090E0958F848F8CE090E0978F868F8DE0C1
:1015000090E091A380A38EE090E093A382A38FE06C
:1015100090E095A384A38BE090E097A386A38AE153
:1015200090E091A780A78BE190E093A782A78CE140
:1015300090E095A784A78FEF90E097A786A70895DE
:10154000FC018081918108950F931F93CF93DF93C6
:101550008B01EA01FC016081718182EC93E00E94C1
:10156000CB15B80182EC93E00E944D0ABE0182ECDB
:1015700093E00E944D0A82EC93E0DF91CF911F919E
:101580000F910C94E0150F931F93CF93DF93EC0111
:101590008B016881798182EC93E00E94CB15B801C0
:1015A00082EC93E00E944D0A82EC93E00E94E015E9
:1015B0006881798141E050E082EC93E00E94BE15A1
:1015C00082EC93E00E940F15892BD1F382EC93E01B
:1015D000DF91CF911F910F910C941715FC0166A11B
:1015E00077A10E94C30A85FB882780F990E00895BF
:1015F0001F93CF93DF93EC016EA17FA10E94C30ADA
:10160000182FCE010E94EE0A019739F414FD08C08C
:1016100013FF09C083E090E008C080E090E005C0BF
:1016200081E090E002C082E090E0DF91CF911F91D5
:101630000895FC0160A571A50C94C30A1F93CF9374
:10164000DF936430B0F4162FEC016C8D7D8D0E9419
:10165000C30A8C7F182B412F50E06C8D7D8DCE01FD
:101660000E94A40A6C8D7D8DCE010E94C30A91E078
:10167000181390E0892FDF91CF911F910895EF9279
:10168000FF920F931F93CF93DF93EC017B018A01AD
:101690006881798182EC93E00E94CB15B80182ECDD
:1016A00093E00E944D0A82EC93E00E94E01568816D
:1016B000798141E050E082EC93E00E94BE1582EC1B
:1016C00093E00E940F15892BD1F382EC93E00E94E6
:1016D00017158C016881798182EC93E00E94CB150B
:1016E000B70182EC93E00E944D0A82EC93E00E94E5
:1016F000E0156881798141E050E082EC93E00E943E
:10170000BE1582EC93E00E940F15892BD1F382EC79
:1017100093E00E94171520E030E0382FC901802B9C
:10172000912BDF91CF911F910F91FF90EF90089532
:10173000FC01408D518D668977890C943F0BFC012B
:1017400040895189668577850C943F0BFC0144895B
:101750005589628973890C943F0BFC0140A151A10A
:10176000668D778D0C943F0BCF93DF93EC016F3F29
:101770008FEF780731F4CE010E94AD0B9B878A87EB
:1017800002C07B876A874B856E897F8950E0CE01D6
:101790000E94A40A62E070E080E090E00E941909D3
:1017A0004A855B855527688D798DCE010E94A40AF4
:1017B00062E070E080E090E00E941909488D598D48
:1017C0006E897F89CE01DF91CF910C943F0BCF932F
:1017D000DF93EC016F3F8FEF780731F4CE010E9469
:1017E000AD0B9B838A8302C07B836A834B816E85AA
:1017F0007F8550E0CE010E94A40A62E070E080E0A4
:1018000090E00E9419094A815B815527688979898E
:10181000CE010E94A40A62E070E080E090E00E94A5
:101820001909488959896E857F85CE010E943F0B31
:101830009D838C83DF91CF910895CF93DF93EC014B
:101840006F3F8FEF780731F4CE010E94AD0B9F837D
:101850008E8302C07F836E834F816A897B8950E0CB
:10186000CE010E94A40A62E070E080E090E00E9455
:1018700019094E815F8155276C897D89CE010E94AF
:10188000A40A62E070E080E090E00E9419094C89AF
:101890005D896A897B89CE010E943F0B9987888781
:1018A000DF91CF910895FC0144A155A162A173A1DC
:1018B0000C943F0BFC0144A555A562A573A50C949F
:1018C0003F0BFC011382158285EB868387E48783B7
:1018D0008FEF8087118208952A981C99FECF2A9A4B
:1018E00008951F93CF93DF93EC01142F2A981C992E
:1018F000FECFCE010E94EB10612FCE010E94EB10B3
:101900002A9ADF91CF911F910895DF92EF92FF9273
:101910000F931F93CF93DF938C01D42EE52EF22EDD
:1019200060642A981C99FECFC8010E94EB10CD2D4F
:10193000DE2DCE018F0D911D7C01CE15DF0529F026
:101940006991C8010E94EB10F8CF2A9ADF91CF91DC
:101950001F910F91FF90EF90DF9008952A981C99A6
:10196000FECF0E94EB102A9A0895CF93DF93EC01EB
:10197000642B2A981C99FECFCE010E94EB1060E0E8
:10198000CE010E94EB102A9ADF91CF910895DF9249
:10199000EF92FF920F931F93CF93DF938C01D62E7C
:1019A000E72EF22E642F606C2A981C99FECFC80196
:1019B0000E94EB10CD2DDE2DCE018F0D911D7C01EF
:1019C000CE15DF0531F060E0C8010E94EB1089936D
:1019D000F7CF2A9ADF91CF911F910F91FF90EF904F
:1019E000DF9008950F931F93CF93DF93EC01062FA1
:1019F000142F462F64E00E94710C412F65E0CE0148
:101A00000E94710C0E831F83DF91CF911F910F9164
:101A10000895FB01418160810C94F20C1F93CF93D8
:101A2000DF93EC01162F462F69E00E94710C188796
:101A3000DF91CF911F9108951F93CF93DF93EC0116
:101A4000162F462F6AE00E94710C1D83DF91CF9103
:101A50001F9108951F93CF93DF93EC01162F6230EF
:101A600079F06330C1F0613009F542E26DE00E9427
:101A7000710C41EB6EE0CE010E94710C4BE320C073
:101A800040E16DE00E94710C47EA6EE0CE010E94D9
:101A9000710C42E615C043E26DE00E94710C4EE409
:101AA0006EE0CE010E94710C44EC0AC041E26DE090
:101AB0000E94710C42E66EE0CE010E94710C46E776
:101AC0006FE0CE010E94710C1B83DF91CF911F91BB
:101AD0000895CF93DF93EC0166E30E94AE0C69E3B7
:101AE000CE01DF91CF910C94AE0CCF93DF93EC013C
:101AF00064E30E94AE0C81E08A83DF91CF91089568
:101B00000F931F93CF93DF93EC018B0140EC6BE3BA
:101B10000E94B50C982F9F7759F087FD09C040E8C7
:101B20006FE3CE010E94B50CF80180838E3318F06C
:101B3000F80110821FC0282F4FE3B8016F5F7F4F5D
:101B4000CE010E94C70C40E86FE3CE010E94B50CA5
:101B5000F80187AF40E86FE3CE010E94B50CF801B1
:101B6000E05CFF4F982F9F779083881F8827881FFE
:101B7000F80186AF66E3CE010E94AE0C6AE3CE01A7
:101B80000E94AE0CCE010E94750DF8018081DF919C
:101B9000CF911F910F910895CF93DF93EC0165E3EF
:101BA0000E94AE0C82E08A83DF91CF910895FF926C
:101BB0000F931F93CF93DF93CDB7DEB78C0182E0F5
:101BC000F8018283C8010E94750D40EC65E3C801ED
:101BD0000E94B50C982F9F719D3039F08131A9F783
:101BE0006AE3C8010E94AE0CF0CF84EF91E00E943E
:101BF00055094885442379F06FE3C8010E94710CB0
:101C00002885AE01475F5F4F6FE3C8010E94850CD6
:101C1000C8010E94CC0D40EC65E3C8010E94B50CE0
:101C20008F718351833080F066E3C8010E94AE0C4F
:101C30006BE3C8010E94AE0CC8010E94750D81E0E3
:101C4000F8018283F12C1CC04A9BFECF4A99FECF3B
:101C500040EC6AE3C8010E94B50C8F77FF24F3942F
:101C60008111F12C66E3C8010E94AE0C6BE3C80140
:101C70000E94AE0CC8010E94750D81E0F8018283BC
:101C80008F2DDF91CF911F910F91FF9008950F93AA
:101C90001F93CF93DF93CDB7DEB7C154D1090FB6F1
:101CA000F894DEBF0FBECDBF8C014EE260E00E9413
:101CB000710C4EE261E0C8010E94710C46E062E0E6
:101CC000C8010E94710C47E063E0C8010E94710CDA
:101CD0004DE366E0C8010E94710C46E067E0C80170
:101CE0000E94710C45E068E0C8010E94710CB801C7
:101CF0006A5F7F4FC8010E94090DF8016085C80125
:101D00000E940E0DF8016581C8010E941C0D48E07B
:101D10006BE0C8010E94710C40E06CE0C8010E94B9
:101D2000710CF8016381C8010E942A0DF8018481B9
:101D3000813011F447EC01C04AEC60E1C8010E9417
:101D4000710C43E861E1C8010E94710C43E962E152
:101D5000C8010E94710C42E263E1C8010E94710C4B
:101D600048EF64E1C8010E94710C45E365E1C801D8
:101D70000E94710C47E066E1C8010E94710C40E2CC
:101D800067E1C8010E94710C48E168E1C8010E9446
:101D9000710C46E169E1C8010E94710C4CE66AE1F0
:101DA000C8010E94710C43E46BE1C8010E94710CF0
:101DB00040E46CE1C8010E94710C41E96DE1C80189
:101DC0000E94710C47E86EE1C8010E94710C4BE65D
:101DD0006FE1C8010E94710C4BEF60E2C8010E94E4
:101DE000710C46E561E2C8010E94710C40E162E2BB
:101DF000C8010E94710C49EE63E2C8010E94710C97
:101E00004AE264E2C8010E94710C40E065E2C80148
:101E10000E94710C4FE166E2C8010E94710C41E41E
:101E200067E2C8010E94710C40E068E2C8010E94AC
:101E3000710C49E569E2C8010E94710C4FE76AE242
:101E4000C8010E94710C4FE36BE2C8010E94710C43
:101E500041E86CE2C8010E94710C45E36DE2C801E3
:101E60000E94710C49E06EE2C8010E94710C198257
:101E70008DB79EB7815491090FB6F8949EBF0FBEDF
:101E80008DBFADB7BEB7119681E4FE0131960190CA
:101E90000D928A95E1F7C8010E94D70D0FB6F8940C
:101EA000DEBF0FBECDBFCF5BDF4F0FB6F894DEBFF6
:101EB0000FBECDBFDF91CF911F910F910895CF93AA
:101EC000DF93EC012A9A85E090E00E9455092A9858
:101ED0008AE090E00E9455092A9A89E290E00E94E7
:101EE00055092A981C99FECF60E3CE010E94EB10A1
:101EF0001C99FECF2A9ACE01DF91CF910C94470E08
:101F0000CF93DF93EC016B834C830E94CC1060E095
:101F100082E00E94E209CE010E945F0F40E66EE37C
:101F2000CE01DF91CF910C94710C80E00E940916D4
:101F300080916E038130A9F46AE273E08CE693E04D
:101F40000E94800D882369F080916803882349F0FE
:101F5000E0917603F0917703309719F08AE293E0ED
:101F6000099542E050E065E97FE080E00C94E915D6
:101F7000CF93DF93EC0101960E94610C1C861B86B7
:101F8000DF91CF9108950F931F93CF93DF93EC01CF
:101F90008C010F5F1F4FC8010E94800F82E390E009
:101FA0000E945509C8010E94750D42E050E065E9A4
:101FB0007FE080E00E94E9151882DF91CF911F91A8
:101FC0000F9108950FB6F894A895809160008861EC
:101FD00080936000109260000FBE98E088E10FB619
:101FE000F894A895809360000FBE90936000FFCF97
:101FF0008F929F92AF92BF92CF92DF92EF92FF9219
:102000000F931F93CF93DF936115710509F456C0A9
:102010009B0127703327232B51F48B0163E0169526
:1020200007956A95E1F74130E9F0C9E020C09B01CE
:10203000237033278B01232B59F4413019F4169563
:10204000079512C01695079516950795C8E00FC01D
:1020500060FD05C016950795413021F405C041305B
:1020600019F404C0C7E003C0C6E001C0C5E0D42F26
:102070007C0181E0F70181936F01CF010E94690D1E
:10208000A12CB12CC7010A964C01A016B1068CF404
:10209000F7018081882369F06C2FC401D13019F4D5
:1020A0000E94F61602C00E94D116FFEFAF1ABF0AB7
:1020B000ECCFC6010E946C0CF7011082DF91CF912A
:1020C0001F910F91FF90EF90DF90CF90BF90AF9056
:1020D0009F908F900895EF92FF920F931F93CF934D
:1020E000DF936115710559F1F22EE42E8B01EC019D
:1020F0008FEF820F823030F421E0FE012193CF0177
:102100000E94690DF1E0EF120AC0C801029703971F
:1021100070F4602FCE010A960E94F61608C00630B1
:10212000110528F4602FCE010A960E94D1162F2D9A
:102130002D7F29F4CE0101960E946C0C1882DF914C
:10214000CF911F910F91FF90EF9008958EE48093AF
:102150007C0062E070E080E090E00E9419098091CC
:102160007A00806480937A0080917A0086FDFCCFAB
:10217000209178008091790030E0382B40E050E0E9
:1021800068E07FE680E190E00E94D21AC9010895DC
:102190008BE693E00C94B80F61E08AE00E941E0A7F
:1021A00061E08AE00E94E20961E08BE00E94E209BE
:1021B00060E08CE00E94E20961E08DE00E94E209AB
:1021C00061E08DE00E941E0A60E08BE00E941E0A22
:1021D00080E58CBD08956EBD0DB407FEFDCF8EB5B4
:1021E00008950F93CF93DF931F92CDB7DEB7FC0115
:1021F0002185328537FD08C0658176810781438559
:10220000CE0101960E941B170F90DF91CF910F9185
:1022100008950F93CF93DF93CDB7DEB7C055D109A3
:102220000FB6F894DEBF0FBECDBFFC0145815681CD
:10223000008527816481CE0101960E94CC14CE01D5
:1022400001960E940614C05BDF4F0FB6F894DEBF04
:102250000FBECDBFDF91CF910F910895CF93DF9344
:10226000EC01E881F981309711F08C810995CE015C
:10227000DF91CF910C940911EF92FF920F93CF93BE
:10228000DF931F92CDB7DEB77C01DC011296ED9192
:10229000FC911397309719F014968C910995C7010A
:1022A0000E940911F7012185328537FD08C065813B
:1022B000768107814385CE0101960E9449170F90D0
:1022C000DF91CF910F91FF90EF900895DC0190E0A6
:1022D0001796EC9117979E1798F4F0E0292F30E0AD
:1022E0003197E21BF30BE60FF71F808115964D9196
:1022F0005C911697FA01E20FF31F80839F5FE8CF8E
:102300000895CF93DF93CDB7DEB7C055D1090FB68F
:10231000F894DEBF0FBECDBFFC012081273008F44A
:10232000A8C0BC01CE0101960E947C132B968FADF4
:102330002B9781119EC08091790390917A03009729
:1023400029F0BE016F5F7F4F0E94C11720917C036F
:1023500021FF05C028968FAD289781FF8AC02A9655
:102360008FAD2A97813089F524962EAD3FAD249705
:102370002115310531F42D968FAD2D97882341F02D
:1023800078C080917B0390E02817390709F071C06D
:102390002C968FAD2C9790E02817390709F069C06B
:1023A0002D96EFAD2D9780910701E81708F061C0D9
:1023B000F0E0EE0FFF1FE85FFE4F808191810097F4
:1023C00009F457C00E942E1154C0813058F4E09196
:1023D0008303F0918403309709F44BC0CE0101963A
:1023E000099547C0823009F044C024964EAD5FADD8
:1023F000249780917B0390E048175907D1F52C96DC
:102400008FAD2C9790E04817590799F52D96EFADB1
:102410002D9730910701E31760F5F0E0EE0FFF1FF5
:10242000E85FFE4F80819181009719F120FF11C074
:1024300040917D0329962FAD2997421751F03830EE
:1024400028F0809116019091170111C080E090E072
:102450000EC060963FAD6097FC012781321307C024
:102460002F966EAD7FAD2F970E943C1102C00E9447
:102470000911C05BDF4F0FB6F894DEBF0FBECDBFB2
:10248000DF91CF9108956D37710541F06A3F710575
:1024900039F0643F714031F464E005C062E003C08C
:1024A00063E001C060E070E023E041E08BE693E090
:1024B0000C946B100F93CF93DF93CDB7DEB72A97B1
:1024C0000FB6F894DEBF0FBECDBF8BEA8F838DECC5
:1024D000888702E028E040E0BE01695F7F4FCE01BF
:1024E0000A960E944917198601E020E040E0BE01EB
:1024F000675F7F4FCE010A960E94491785EB8D8357
:1025000087E48E8302E022E040E0BE016B5F7F4FF4
:10251000CE010A960E944917809166001B828C8327
:1025200024E040E0BE016D5F7F4FCE010A960E941D
:10253000491781E089831A8226E040E0BE016F5F7F
:102540007F4FCE010A960E9449172A960FB6F8943B
:10255000DEBF0FBECDBFDF91CF910F910895EF92F7
:10256000FF920F931F93CF93DF9300D01F92CDB7AD
:10257000DEB77C0102E028E040E0BE016F5F7F4FE4
:10258000CE0103960E941B1789818B3A19F48A8128
:102590008D3C19F0C7010E945A1210E0809107018A
:1025A000181760F4E12FF0E0EE0FFF1FE85FFE4F19
:1025B000808191810E94F1101F5FF0CFF70182812D
:1025C0008093740340E060E08BE693E00E94C30FC9
:1025D00040EC6EE38CE693E00E94710C81E891E19F
:1025E00090937703809376030F900F900F90DF9175
:1025F000CF911F910F91FF90EF900895E9E7F3E0DD
:102600001386128611821082118610861382089515
:102610000895AF92BF92CF92DF92EF92FF920F9305
:102620001F93CF93DF93DC01A95BBF4FE091810340
:10263000F0918203662321F031852C9123272C937E
:102640002C91EC01C85BDF4F38813227438534275A
:10265000388325973285322748815981432759830A
:10266000488327963881322740853427388321963E
:10267000388132274781342738832396788105E8CB
:1026800013E0A12CB12C30E07C014CE4E40EF11CF1
:10269000A716C8F4E701488159814A0D5B1D6F01F7
:1026A000C30ED11CEA015881E60148814527422723
:1026B000E80149938E013F5F3B3009F430E0DFEFE2
:1026C000AD1ABD0AE5CF772339F0EC01C45BDF4FCB
:1026D00045E853E059834883611103C08185282769
:1026E0002C93DF91CF911F910F91FF90EF90DF908E
:1026F000CF90BF90AF900895CF92DF92EF92FF926C
:102700000F931F93CF93DF93FC01DB018D91EF01BA
:10271000899390E0981721F02D9129939F5FFACF2C
:102720009381DF01AB5BBF4F292F22952F702C9334
:102730006F0126E4C20ED11C9F70D6019C93948138
:1027400011969C9395811196292F2F772C93119692
:10275000EF01CF5BDF4F8F010D5B1F4FBF01665B4A
:102760007F4FAF01455B5F4F97FF16C091E09C9391
:1027700021813281322723273227398328832681FA
:102780003781322723273227E8013983288391852F
:10279000EB01988392850EC01C92218130E0398331
:1027A0002883228130E0E801398328839681EB0178
:1027B00098839781EA0198839F01245B3F4FAF0183
:1027C000485F5F4FE901598348832E5F3F4F875031
:1027D000E90188838C91811110C0D6018C9181FF11
:1027E0000CC061E0CF01DF91CF911F910F91FF905D
:1027F000EF90DF90CF900C940913DF91CF911F9150
:102800000F91FF90EF90DF90CF900895CF92DF92DD
:10281000EF92FF920F931F93CF93DF93CDB7DEB765
:10282000C154D1090FB6F894DEBF0FBECDBF8C01E5
:10283000FC01E15BFF4F80819801225B3F4F7901F2
:10284000E754F109D901811110C08C9190E0A801E1
:10285000445B5F4F0197D8F0DA012D913C91D9018B
:10286000A80FB91F2C912193F5CF3C9180E090E007
:10287000A801445B5F4F831750F4DA016D917C919E
:10288000DB01A80FB91F2C9121930196F4CF6801A9
:10289000B6E4CB0ED11CF601808181FF04C060E05C
:1028A000C8010E940913D7018C91895FF8018083C8
:1028B000EB5BFF4F8081F0E18F9FC0011124D601B7
:1028C0009C919F70892BF8018383E95BFF4F808186
:1028D000D80114968C931497329610823897808181
:1028E000F8018183ED5BFF4F808112968C931297E4
:1028F00035968081F8018583E65BFF4F80811696CF
:102900008C9331968081F801878393E0F92E81E4DE
:10291000F801DE01119601900D928A95E1F72DB72D
:102920003EB7215431090FB6F8943EBF0FBE2DBFFC
:10293000ADB7BEB7119681E4FE01319601900D92BC
:102940008A95E1F78CE693E00E94D70D0FB6F894D4
:10295000DEBF0FBECDBF81110FC0FA94FF2061F022
:102960006091740370E0660F771F072E000C880BD0
:10297000990B0E941909CBCFCF5BDF4F0FB6F894AC
:10298000DEBF0FBECDBFDF91CF911F910F91FF90A2
:10299000EF90DF90CF900895DF92EF92FF920F9328
:1029A0001F93CF93DF93EC01D62E7A01122F0E9452
:1029B0000813FE01EF5BFF4F11821082E9E7F3E09D
:1029C0009281DE01AD5BBF4F292F30E011963C9321
:1029D0002E9312961C92119683818F708C93848112
:1029E0008F5F8483FE01E95BFF4F80833196108205
:1029F000329690833196D082339610833297F1824B
:102A0000E082C15BDF4F0883DF91CF911F910F916F
:102A1000FF90EF90DF90089580E090E0089580911E
:102A2000F20390E02091F303821B910908959091A5
:102A3000F3038091F203981750F4E92FF0E0EC5083
:102A4000FC4F208130E09F5F9093F30302C02FEF93
:102A50003FEFC9010895E091F3038091F203E81775
:102A600030F4F0E0EC50FC4F808190E008958FEF5F
:102A70009FEF08950895CF92DF92EF92FF920F9308
:102A80001F93CF93DF937C01CB018A012091CE036A
:102A9000222389F0EB016B01C40ED51ECC15DD0598
:102AA00069F06991D701ED91FC910190F081E02DE1
:102AB000C7010995F3CF642F0E942219C801DF9145
:102AC000CF911F910F91FF90EF90DF90CF900895DD
:102AD000CF93DF931F92CDB7DEB769832091CE03EA
:102AE0002223D1F02091CF03203240F021E030E0CA
:102AF000FC013383228380E090E015C08091D003F5
:102B0000E82FF0E0EF52FC4F998190838F5F809324
:102B1000D0038093CF0305C061E0CE0101960E94EF
:102B2000221981E090E00F90DF91CF910895FC0190
:102B30001382128288EE93E0A0E0B0E08483958354
:102B4000A683B78389E591E09183808308951092ED
:102B5000F3031092F2031092D0031092CF030C945F
:102B60006F18862F413208F040E264EF73E00E9454
:102B70008D181092F3038093F203089521E00C94D2
:102B8000B11581E08093CE036093F1031092D003DE
:102B90001092CF0308950C94C1150F93062F21E0D6
:102BA0004091CF0361ED73E08091F1030E94D01852
:102BB0001092D0031092CF031092CE030F9108957C
:102BC00061E00C94CD1582EC93E00C949715089578
:102BD00008958230E8F4E82FF0E0EE0FFF1FEF5A7F
:102BE000FE4F71836083813041F0809169008C7F5A
:102BF000482B40936900E89A089580916900837F8B
:102C0000440F551F440F551F482B40936900E99A04
:102C10000895823078F4813011F0E89801C0E99885
:102C2000E82FF0E0EE0FFF1FEF5AFE4F88EE95E120
:102C30009183808308951F920F920FB60F921124F3
:102C40002F933F934F935F936F937F938F939F93B4
:102C5000AF93BF93EF93FF93E0915101F091520135
:102C60000995FF91EF91BF91AF919F918F917F91C6
:102C70006F915F914F913F912F910F900FBE0F90E9
:102C80001F9018951F920F920FB60F9211242F9339
:102C90003F934F935F936F937F938F939F93AF93E4
:102CA000BF93EF93FF93E0915301F0915401099585
:102CB000FF91EF91BF91AF919F918F917F916F9114
:102CC0005F914F913F912F910F900FBE0F901F90EA
:102CD000189583B78E7F83BFE4E6F0E08081807132
:102CE0008083EAE7F0E08081806880831092700042
:102CF00008951F920F920FB60F9211240F900FBEDE
:102D00000F901F901895862F8770683008F08062AA
:102D1000806194B7977F94BF909160009861909381
:102D20006000809360008091600080648093600008
:102D300008951F920F920FB60F9211248F939F93B5
:102D4000AF93BF938091140490911504A091160441
:102D5000B09117040196A11DB11D809314049093A6
:102D60001504A0931604B0931704BF91AF919F91DF
:102D70008F910F900FBE0F901F90189580E2809357
:102D8000B6001092B2001092B0006093B100809132
:102D9000B6008371E1F787E087BB81E08093700024
:102DA0000895CF93DF93EC0183B7817F846083BF65
:102DB00083B7816083BFCE010E9483168AE090E0D2
:102DC0000E945509EAE7F0E080818F7780838FEFDA
:102DD0008093640083B7816083BF889583B78E7FBB
:102DE00083BFCE01DF91CF910C946916CF93DF930F
:102DF000EC0183B7817F866083BF83B7816083BF27
:102E0000CE010E94BE168AE090E00E945509EAE7D2
:102E1000F0E080818F7780838FEF8093640083B7A9
:102E2000816083BF889583B78E7F83BFCE01DF919A
:102E3000CF910C946916CF92DF92EF92FF920F938D
:102E40001F93CF93DF9341111AC07B01F8946B015C
:102E500010E0C22FD0E0C61BD70B802F96012E1991
:102E60003F092017310748F4CE018C0D9D1D0E94AB
:102E7000111BF60181936F01F0CF789401C080E0BF
:102E8000DF91CF911F910F91FF90EF90DF90CF9046
:102E90000895CF92DF92EF92FF920F931F93CF93FB
:102EA000DF93411119C0F8946B01E12CF12C10E073
:102EB000C22FD0E0802FE016F10660F4F601619198
:102EC0006F01CE018E0D9F1D0E94191BFFEFEF1A9F
:102ED000FF0AF0CF789401C080E0DF91CF911F917D
:102EE0000F91FF90EF90DF90CF900895EF92FF92B7
:102EF0000F931F93CF93DF937C018B01C091180434
:102F0000D0E00E94E80823E0CC0FDD1F2A95E1F70E
:102F1000CE0DDF1D69837A838B839C8320911804F7
:102F2000F801E85BFF4F3081822F90E0F70148E025
:102F3000249FE00DF11D11243583D801AD5BBF4FF7
:102F40002C91268314962C912783F801E65BFF4F82
:102F5000408101969C0153E0220F331F5A95E1F7FF
:102F6000F701E20FF31F408364E170E00E949C1AB6
:102F700080931804DF91CF911F910F91FF90EF90F4
:102F800008954F925F926F927F928F929F92AF922D
:102F9000BF92CF92DF92EF92FF920F931F93CF9346
:102FA000DF93FC01EF55FF4F2081222309F486C0F7
:102FB00020917B0330E0FB01EF5BFF4F40815181AB
:102FC0004217530709F47AC04B0125E4820E911C85
:102FD000F4013081FC012081321708F06FC0EB0151
:102FE0008C017C012C01F0EA4F0E511C3B012AE4BC
:102FF000620E711C6B0188E4C80ED11C5B01E7E412
:10300000AE0EB11CF7019085F3018081981739F05D
:10301000F8E0EF0EF11C4E145F04A1F71FC0F7019A
:103020009581F60180819813F3CFF7019781F5011F
:1030300080819813EDCF0E94E808F7012181328149
:1030400043815481DC01CB01821B930BA40BB50B94
:10305000803D9740A105B105D8F630C0FE01ED5B7B
:10306000FF4F80917B0390E091838083F401808106
:103070008F5F80836091740370E0660F771F072E67
:10308000000C880B990B0E941909CE010E940614AE
:103090008823A1F0BE01C801DF91CF911F910F914C
:1030A000FF90EF90DF90CF90BF90AF909F908F9068
:1030B0007F906F905F904F900C947617DF91CF9137
:1030C0001F910F91FF90EF90DF90CF90BF90AF9046
:1030D0009F908F907F906F905F904F900895109287
:1030E000860481E0809384041092830461E082E18D
:1030F0000E941E0A61E083E10E941E0AE9EBF0E0F3
:1031000080818E7F808380818D7F808380E2809329
:10311000B80085E48093BC0008954132E8F59091B1
:1031200086049111FCCF91E090938604209384044F
:103130002FEF2093190410925E04240F20935D0456
:103140009093850490918504880F892B8093850442
:1031500080918304813041F410928304809185042E
:103160008093BB0085EC01C085EE8093BC0080910C
:1031700086048130E1F380915E04841710F440915D
:103180005E04AFE5B4E0962FFB018E2F891B8417F8
:1031900028F48D918193F9CF80E00895842F0895CC
:1031A0000F934132C8F5909186049111FCCF32E023
:1031B00030938604009384043FEF309319041092F7
:1031C0005E0440935D04562FAFE5B4E0FB013E2F53
:1031D000351B341718F431913D93F9CF10928504C3
:1031E00030918504880F832B80938504809183041C
:1031F000813041F410928304809185048093BB0058
:1032000085EC01C085EE8093BC00222339F08091CB
:103210008604823019F4F9CF91E011C0809119042D
:103220008F3F69F080911904803231F08091190448
:10323000803321F094E003C092E001C093E0892F35
:103240000F910895613288F420918604243079F436
:1032500060933B04282FADE3B4E0FC018E2F821B6A
:10326000861738F481918D93F9CF81E0089582E03B
:10327000089580E0089585ED8093BC008091BC00A6
:1032800084FDFCCF10928604089585EC8093BC00E9
:103290001092860408951F920F920FB60F92112478
:1032A0002F933F934F935F936F937F938F939F934E
:1032B000AF93BF93EF93FF938091B900887F8036DF
:1032C00009F49CC068F5883209F45BC090F4803141
:1032D00009F454C038F4882309F4F5C0883009F49F
:1032E0004DC0F5C0883109F44CC0803209F45DC08E
:1032F000EEC0803409F468C048F4803309F455C046
:10330000883309F0E4C080931904A8C0803509F41B
:103310004FC0883509F45DC0883409F0D8C0D5C0E5
:10332000883909F4C6C0A8F4883709F467C038F4AE
:10333000883609F463C0803709F460C0C8C0883893
:1033400009F4B7C0803909F45FC0803809F0BFC004
:103350005BC0803B09F485C038F4803A09F466C04C
:10336000883A09F47EC0B3C0803C09F4A6C0883C0A
:1033700009F4A3C0883B09F489C0A9C080918504E1
:1033800010C090915E0480915D04981770F5E091F3
:103390005E0481E08E0F80935E04F0E0E15AFB4F03
:1033A00080818093BB0085EC85C0809319048DC01B
:1033B000E0915E0481E08E0F80935E048091BB00FB
:1033C000F0E0E15AFB4F808390915E0480915D04B0
:1033D0006DC0E0915E0481E08E0F80935E04809169
:1033E000BB00F0E0E15AFB4F80838091840481119F
:1033F0006CC081E08093830484EA60C083E08093A2
:10340000860410921A04CFCF80911A04803208F0FB
:1034100050C0E0911A0481E08E0F80931A048091CD
:10342000BB00F0E0E55EFB4F8083BDCF80911A04C6
:10343000803230F4E0911A04F0E0E55EFB4F108238
:103440000E943B1960911A0470E0E0917F04F091B2
:1034500080048BE194E0099510921A040E944519AA
:1034600036C084E08093860410923C0410923B04A2
:10347000E0918104F0918204099580913B048111CF
:1034800005C081E080933B0410923D04E0913C0430
:1034900081E08E0F80933C04F0E0E35CFB4F808181
:1034A0008093BB0090913C0480913B04981708F4F2
:1034B0007ACF85E88093BC000AC085EC8093BC007D
:1034C0001092860404C0109219040E943B19FF91C7
:1034D000EF91BF91AF919F918F917F916F915F918C
:1034E0004F913F912F910F900FBE0F901F90189505
:1034F000DB018F939F930E94F11ABF91AF91A29F1E
:10350000800D911DA39F900DB29F900D11240895E1
:10351000AA1BBB1B51E107C0AA1FBB1FA617B707F9
:1035200010F0A61BB70B881F991F5A95A9F7809515
:103530009095BC01CD01089597FB072E16F40094D9
:1035400007D077FD09D00E94881A07FC05D03EF409
:10355000909581959F4F0895709561957F4F08953F
:10356000A1E21A2EAA1BBB1BFD010DC0AA1FBB1F87
:10357000EE1FFF1FA217B307E407F50720F0A21BF9
:10358000B30BE40BF50B661F771F881F991F1A9466
:1035900069F760957095809590959B01AC01BD0190
:1035A000CF010895052E97FB1EF400940E94E91A9E
:1035B00057FD07D00E94B01A07FC03D04EF40C94BC
:1035C000E91A50954095309521953F4F4F4F5F4FE9
:1035D000089590958095709561957F4F8F4F9F4F7F
:1035E00008950E94021BA59F900DB49F900DA49F6B
:1035F000800D911D11240895EE0FFF1F0590F49189
:10360000E02D0994A29FB001B39FC001A39F700D4C
:10361000811D1124911DB29F700D811D1124911DDA
:103620000895F999FECF92BD81BDF89A992780B58A
:103630000895262FF999FECF1FBA92BD81BD20BDF6
:103640000FB6F894FA9AF99A0FBE01960895F89475
:02365000FFCFAA
:1036520028000000FA000A1C14030703FA02ED0214
:10366200E002D302C502B802AB029E0291028202BC
:103672007302660259024C023D022E02200213021C
:103682000402F501E601D701C901BB01AE01A101A6
:1036920000000001000000010000099900000999E2
:1036A20001E815E8150000000068153B150C153AF5
:0836B200150F1517152B15006B
:00000001FF
