:100000000C945F000C94DA060C9401070C948700A2
:100010000C9487000C9487000C943C0D0C94870082
:100020000C9487000C94460D0C9487000C94870068
:100030000C9487000C9487000C9487000C94870024
:100040000C9428070C9487000C9487000C9487006C
:100050000C9487000C9487000C9487000C94870004
:100060000C9487000C948700000000080002010037
:100070000003040700000000000000000102040863
:100080001020408001020408102001020408102002
:10009000040404040404040402020202020203032E
:1000A0000303030300000000250028002B000000CC
:1000B0000000240027002A002302CF062E0B112463
:1000C0001FBECFEFD8E0DEBFCDBF11E0A0E0B1E0B2
:1000D000E6E2FEE102C005900D92A235B107D9F724
:1000E00023E0A2E5B1E001C01D92A73AB207E1F713
:1000F00010E0CFE5D0E004C02197FE010E94F50E8C
:10010000CC35D107C9F70E949F060C94110F0C94AF
:100110000000CF92DF92EF92FF920F931F93CF9345
:10012000DF931F92CDB7DEB761E084E00E94AD0897
:1001300060E084E00E94E90804E011E081E00C3016
:10014000180739F061E0F80181918F010E94AD0834
:10015000F5CF00E011E0F1E004301F0739F061E075
:10016000F80181918F010E94AD08F5CF81E593E000
:100170000E94E70A65E081E593E00E946A0A8091A7
:100180000C01882329F080910D0190910E0102C08D
:1001900080E090E00E94550981E08983BE016F5F95
:1001A0007F4F80911301909114010E9463098DE0AB
:1001B000E82E81E0F82E67011CE080910C011817F1
:1001C00020F4F601808D918D02C080E090E00E94C5
:1001D00055091F5FF2E0CF0ED11C143171F78091E9
:1001E0000C01181720F4F70180A591A502C080E04A
:1001F00090E00E9455091F5FF2E0EF0EF11C1831EC
:1002000071F70F90DF91CF911F910F91FF90EF90B9
:10021000DF90CF90089561E084E00E94E90864E6F1
:1002200070E080E090E00E94A30760E084E00E941C
:10023000E90864E273E180E090E00C94A30788E0B1
:1002400092E00C948D09CF92DF92EF92FF920F9380
:10025000CF93DF93CDB7DEB7C055D1090FB6F89471
:10026000DEBF0FBECDBF7B0185E1C82E82E0D82E58
:1002700001E0F6012781AB016481CE0101960E9465
:10028000FC0CCE0101960E94360CB701C6010E94FB
:100290008D09F6018781E80EF11CF7013197608125
:1002A00089E992E00E948604C05BDF4F0FB6F894A4
:1002B000DEBF0FBECDBFDF91CF910F91FF90EF90CA
:1002C000DF90CF900895EF92FF920F93CF93DF933B
:1002D000CDB7DEB7C055D1090FB6F894DEBF0FBE5B
:1002E000CDBFE0912702F0912802DB019C91808133
:1002F000981305C011969C9181819817A1F07B01FC
:1003000001E020912902AB0160912602CE01019605
:100310000E94FC0CCE0101960E94360CB70189E9BF
:1003200092E00E948104C05BDF4F0FB6F894DEBFFD
:100330000FBECDBFDF91CF910F91FF90EF90089549
:10034000E82FF0E0EE0FFF1FE35FFE4F0190F0811A
:10035000E02D0580F681E02DDB019C9190838C508F
:10036000E82FF0E0EC5FFE4F6C9180810C94E9087F
:10037000E82FF0E0EE0FFF1FE35FFE4F0190F081EA
:10038000E02D0580F681E02DDB019C9190836C913E
:1003900070E08451E82FF0E0E050FF4F80810C9432
:1003A0002508EF92FF920F93CF93DF93CDB7DEB77F
:1003B000C055D1090FB6F894DEBF0FBECDBFE09196
:1003C0005C02F0915D02DB019C9180819817A9F09D
:1003D0007B0101E020915E02AB0160915B02CE01E6
:1003E00001960E94FC0CCE0101960E94360CF7018A
:1003F000608189E992E00E949404C05BDF4F0FB6F0
:10040000F894DEBF0FBECDBFDF91CF910F91FF906B
:10041000EF900895FB0180818093560380818111C4
:1004200011C080910C01843028F0809113019091CB
:10043000140102C080E090E00E94300988E992E057
:100440000C94B9060895EBE8F2E011821082138251
:1004500012829091AE02948325E431E036832583A5
:1004600088E0878381E080872FEF3FEF3287218705
:1004700014861386EEE7F2E0118210821382128254
:1004800041E0490F448341E451E05683458344E011
:10049000478380873287218714861386E1E7F2E05D
:1004A000118210821382128252E0590F54836DE33D
:1004B00071E076836583478380873287218714863E
:1004C0001386E4E6F2E0118210824AE052E05383A0
:1004D000428343E0490F448346E553E05683458316
:1004E000878380873287218714861386E7E5F2E0C9
:1004F0001182108241ED51E05383428344E0490F61
:1005000044834EE952E056834583878310861286E2
:10051000118614861386EAE4F2E0118210821382B7
:10052000128245E0490F448344E553E056834583F6
:10053000878380873287218714861386ECE3F2E075
:10054000118210821382128246E0490F448349E4EB
:1005500052E05683458387838087328721871486BC
:100560001386EFE2F2E0118210821382128248E0D9
:10057000490F57E0590F548365E573E0768365832F
:10058000878380873287218714861386E2E2F2E030
:100590001182108263E671E07383628344834FE9C2
:1005A00052E05683458342E04783808762E070E0F3
:1005B0007287618714861386E5E1F2E0118210826A
:1005C00063E271E07383628359E0590F548363E5FA
:1005D00073E0768365838783108665E070E07287B9
:1005E000618714861386E8E0F2E0118210826FE1E1
:1005F00071E0738362835AE0590F548367E573E0B7
:10060000768365834783108646E050E052874187B2
:1006100014861386EAEFF1E01182108213821282AF
:100620004BE0490F448347E052E05683458387837C
:1006300080873287218714861386ECEEF1E01182E1
:10064000108240EA51E0538342836CE0690F648377
:1006500069EF71E07683658387838087328721879E
:1006600014861386EEEDF1E01182108253834283EB
:100670006DE0690F64836BEE71E076836583878339
:1006800080873287218714861386E0EDF1E011829E
:100690001082538342836EE0690F64836DED71E0D5
:1006A00076836583878380873287218714861386C4
:1006B000E2ECF1E011821082538342836FE0690F14
:1006C00064836FEC71E076836583878380873287EC
:1006D000218714861386E4EBF1E0118210825383A4
:1006E000428360E1690F648361EC71E07683658326
:1006F000878380873287218714861386E6EAF1E0B4
:10070000118210825383428361E1690F648363EB3A
:1007100071E076836583878380873287218714869B
:100720001386E8E9F1E0118210825383428362E18B
:10073000690F648365EA71E07683658387838087C8
:100740003287218714861386EAE8F1E0118210824D
:100750005383428343E1490F448347E951E0568381
:100760004583878380873287218714861386ECE749
:10077000F1E01182108248EB51E05383428364E13F
:10078000690F648369E871E0768365838783808776
:100790003287218714861386EEE6F1E011821082FB
:1007A0005383428365E1690F64836BE771E076836D
:1007B0006583878380873287218714861386E0E6E6
:1007C000F1E0118210825383428366E1690F6483F2
:1007D0006DE671E076836583878380873287218722
:1007E00014861386E2E5F1E011821082538342837E
:1007F00048E1490F4093AE02995E94834FE551E082
:1008000056834583878380873287218714861386A2
:100810000895FC011382158285EB868387E4878324
:100820008FEF8087118208951F93CF93DF93EC01A0
:10083000142F2A981C99FECFCE010E94D306612F57
:10084000CE010E94D3062A9ADF91CF911F9108957D
:10085000DF92EF92FF920F931F93CF93DF938C0160
:10086000D42EE52EF22E60642A981C99FECFC80182
:100870000E94D306CD2DDE2DCE018F0D911D7C0162
:10088000CE15DF0529F06991C8010E94D306F8CF83
:100890002A9ADF91CF911F910F91FF90EF90DF90F7
:1008A00008952A981C99FECF0E94D3062A9A08958B
:1008B000CF93DF93EC01642B2A981C99FECFCE01D5
:1008C0000E94D30660E0CE010E94D3062A9ADF91EF
:1008D000CF9108950F931F93CF93DF93EC01062FD1
:1008E000142F462F64E00E941404412F65E0CE01CE
:1008F0000E9414040E831F83DF91CF911F910F91EB
:100900000895FB01418160810C946A041F93CF9389
:10091000DF93EC01162F462F69E00E94140418871C
:10092000DF91CF911F9108951F93CF93DF93EC0137
:10093000162F462F6AE00E9414041D83DF91CF9189
:100940001F9108951F93CF93DF93EC01162F623010
:1009500079F06330C1F0613009F542E26DE00E9448
:10096000140441EB6EE0CE010E9414044BE320C05E
:1009700040E16DE00E94140447EA6EE0CE010E945F
:10098000140442E615C043E26DE00E9414044EE4F4
:100990006EE0CE010E94140444EC0AC041E26DE016
:1009A0000E94140442E66EE0CE010E94140446E761
:1009B0006FE0CE010E9414041B83DF91CF911F9141
:1009C000089561E082E10E94E90860E083E10C940F
:1009D000E908CF93DF93EC018981882319F0CE01D8
:1009E0000E94E10465E3CE010E94510482E08A8303
:1009F000DF91CF91089561E083E10E94E90860E012
:100A000082E10C94E908CF93DF93EC0164E30E9448
:100A1000510481E08A838981882329F0CE01DF9106
:100A2000CF910C94FB04DF91CF910895FF920F9327
:100A30001F93CF93DF93CDB7DEB78C0182E0F8012F
:100A40008283C8010E94030540EC65E3C8010E944F
:100A50005804982F9F719D3039F08131A9F76AE3CE
:100A6000C8010E945104F0CF84EF91E00E94DF079B
:100A70004885442379F06FE3C8010E941404288557
:100A8000AE01475F5F4F6FE3C8010E942804C801B1
:100A90000E94E90440EC65E3C8010E9458048F718C
:100AA0008351833080F066E3C8010E9451046BE3F8
:100AB000C8010E945104C8010E94030581E0F801A9
:100AC0008283F12C1CC04A9BFECF4A99FECF40EC9A
:100AD0006AE3C8010E9458048F77FF24F3948111C0
:100AE000F12C66E3C8010E9451046BE3C8010E9427
:100AF0005104C8010E94030581E0F80182838F2D13
:100B0000DF91CF911F910F91FF9008950F931F9345
:100B1000CF93DF93CDB7DEB7C154D1090FB6F894A8
:100B2000DEBF0FBECDBF8C014EE260E00E94140418
:100B30004EE261E0C8010E94140446E062E0C80190
:100B40000E94140447E063E0C8010E9414044DE3CE
:100B500066E0C8010E94140446E067E0C8010E94F4
:100B6000140445E068E0C8010E941404B8016A5FFB
:100B70007F4FC8010E948104F8016085C8010E946E
:100B80008604F8016581C8010E94940448E06BE086
:100B9000C8010E94140440E06CE0C8010E941404E3
:100BA000F8016381C8010E94A204F80184818130A8
:100BB00011F447EC01C04AEC60E1C8010E94140442
:100BC00043E861E1C8010E94140443E962E1C801FD
:100BD0000E94140442E263E1C8010E94140448EF39
:100BE00064E1C8010E94140445E365E1C8010E9464
:100BF000140447E066E1C8010E94140440E267E182
:100C0000C8010E94140448E168E1C8010E9414046C
:100C100046E169E1C8010E9414044CE66AE1C8019A
:100C20000E94140443E46BE1C8010E94140440E4F0
:100C30006CE1C8010E94140441E96DE1C8010E9401
:100C4000140447E86EE1C8010E9414044BE66FE10A
:100C5000C8010E9414044BEF60E2C8010E94140412
:100C600046E561E2C8010E94140440E162E2C80165
:100C70000E94140449EE63E2C8010E9414044AE28F
:100C800064E2C8010E94140440E065E2C8010E94C9
:100C900014044FE166E2C8010E94140441E467E2D3
:100CA000C8010E94140440E068E2C8010E941404D4
:100CB00049E569E2C8010E9414044FE76AE2C801ED
:100CC0000E9414044FE36BE2C8010E94140441E83F
:100CD0006CE2C8010E94140445E36DE2C8010E9461
:100CE000140449E06EE2C8010E94140419828DB711
:100CF0009EB7815491090FB6F8949EBF0FBE8DBF69
:100D0000ADB7BEB7119681E4FE01319601900D9208
:100D10008A95E1F7C8010E9416050FB6F894DEBF68
:100D20000FBECDBFCF5BDF4F0FB6F894DEBF0FBE57
:100D3000CDBFDF91CF911F910F91089508950E942B
:100D4000EA070E949E060E948900C0E0D0E00E944F
:100D50000B012097E1F30E940000F9CFCF93DF93BE
:100D6000EC0101960E9409041C861B86DF91CF913D
:100D700008950FB6F894A8958091600088618093DB
:100D80006000109260000FBE98E088E10FB6F89402
:100D9000A895809360000FBE90936000FFCF88E914
:100DA00092E00C94AE066EBD0DB407FEFDCF8EB57D
:100DB000089508951F920F920FB60F9211242F934A
:100DC0003F934F935F936F937F938F939F93AF93D3
:100DD000BF93EF93FF93E0914D01F0914E01099580
:100DE000FF91EF91BF91AF919F918F917F916F9103
:100DF0005F914F913F912F910F900FBE0F901F90D9
:100E000018951F920F920FB60F9211242F933F93B4
:100E10004F935F936F937F938F939F93AF93BF9302
:100E2000EF93FF93E0914F01F09150010995FF91ED
:100E3000EF91BF91AF919F918F917F916F915F9152
:100E40004F913F912F910F900FBE0F901F901895CB
:100E50001F920F920FB60F9211242F933F938F93EF
:100E60009F93AF93BF938091A6029091A702A09108
:100E7000A802B091A9023091A50223E0230F2D37DB
:100E800020F40196A11DB11D05C026E8230F02968E
:100E9000A11DB11D2093A5028093A6029093A702E5
:100EA000A093A802B093A9028091AA029091AB02EC
:100EB000A091AC02B091AD020196A11DB11D80932D
:100EC000AA029093AB02A093AC02B093AD02BF9183
:100ED000AF919F918F913F912F910F900FBE0F90E7
:100EE0001F9018952FB7F8946091A6027091A702F1
:100EF0008091A8029091A9022FBF08953FB7F8945E
:100F00008091AA029091AB02A091AC02B091AD0287
:100F100026B5A89B05C02F3F19F00196A11DB11D54
:100F20003FBFBA2FA92F982F8827820F911DA11D8F
:100F3000B11DBC01CD0142E0660F771F881F991FCC
:100F40004A95D1F708958F929F92AF92BF92CF9218
:100F5000DF92EF92FF926B017C010E947E074B01B2
:100F60005C01C114D104E104F10401F10E946B0D94
:100F70000E947E07DC01CB0188199909AA09BB09E7
:100F8000883E9340A105B10560F321E0C21AD10863
:100F9000E108F10888EE880E83E0981EA11CB11CC0
:100FA000C114D104E104F10419F7DBCFFF90EF90F5
:100FB000DF90CF90BF90AF909F908F900895823038
:100FC000910538F0880F991F880F991F0597019791
:100FD000F1F70895789484B5826084BD84B581600A
:100FE00084BD85B5826085BD85B5816085BDEEE631
:100FF000F0E0808181608083E1E8F0E01082808110
:1010000082608083808181608083E0E8F0E080817D
:1010100081608083E1EBF0E0808184608083E0EB9D
:10102000F0E0808181608083EAE7F0E08081846085
:1010300080838081826080838081816080838081E1
:10104000806880831092C10008951F93CF93DF932F
:10105000182FEB0161E00E94AD08209711F460E0C9
:1010600004C0CF3FD10539F461E0812FDF91CF91EA
:101070001F910C94E908E12FF0E0E859FF4FE4914B
:10108000E330F9F048F4E130B9F0E230A1F584B58D
:10109000806284BDC8BD34C0E730E9F0E83019F1A2
:1010A000E43049F580918000806280938000D09385
:1010B0008B00C0938A0024C084B5806884BDC7BDFE
:1010C0001FC080918000806880938000D093890049
:1010D000C093880015C08091B00080688093B000F4
:1010E000C093B3000DC08091B00080628093B000C7
:1010F000C093B40005C0C038D1050CF0B5CFAFCF58
:10110000DF91CF911F910895833081F028F48130D1
:1011100099F08230A1F008958730A9F08830B9F0B5
:101120008430D1F4809180008F7D03C08091800055
:101130008F7780938000089584B58F7702C084B53F
:101140008F7D84BD08958091B0008F7703C080911A
:10115000B0008F7D8093B0000895CF93DF9390E02F
:10116000FC01E458FF4F2491FC01E057FF4F8491AC
:10117000882361F190E0880F991FFC01E255FF4F31
:10118000C591D491FC01EC55FF4FA591B49161112B
:1011900009C09FB7F8948881209582238883EC91B9
:1011A0002E230BC0623061F49FB7F8948881322FF0
:1011B000309583238883EC912E2B2C939FBF06C000
:1011C0008FB7F894E8812E2B28838FBFDF91CF91C2
:1011D00008951F93CF93DF93282F30E0F901E8594A
:1011E000FF4F8491F901E458FF4FD491F901E05782
:1011F000FF4FC491CC23C1F0162F81110E948408A7
:10120000EC2FF0E0EE0FFF1FEC55FF4FA591B491CE
:101210009FB7F894111104C08C91D095D82302C0C7
:10122000EC91DE2BDC939FBFDF91CF911F9108954E
:101230000F93CF93DF931F92CDB7DEB7FC012185CB
:10124000328537FD08C06581768107814385CE01EF
:1012500001960E946C0D0F90DF91CF910F91089530
:101260000F93CF93DF93CDB7DEB7C055D1090FB63B
:10127000F894DEBF0FBECDBFFC01458156810085CD
:1012800027816481CE0101960E94FC0CCE0101965B
:101290000E94360CC05BDF4F0FB6F894DEBF0FBE66
:1012A000CDBFDF91CF910F910895CF93DF93EC01E4
:1012B000E881F981309711F08C810995CE01DF9199
:1012C000CF910C943009EF92FF920F93CF93DF935D
:1012D0001F92CDB7DEB77C01DC011296ED91FC9137
:1012E0001397309719F014968C910995C7010E94B5
:1012F0003009F7012185328537FD08C06581768187
:1013000007814385CE0101960E949A0D0F90DF91CF
:10131000CF910F91FF90EF900895DC0190E0179628
:10132000EC9117979E1798F4F0E0292F30E0319751
:10133000E21BF30BE60FF71F808115964D915C9130
:101340001697FA01E20FF31F80839F5FE8CF08959D
:10135000CF93DF93CDB7DEB7C055D1090FB6F89460
:10136000DEBF0FBECDBFFC012081273008F4A8C02E
:10137000BC01CE0101960E94AC0B2B968FAD2B9732
:1013800081119EC08091510390915203009729F0E2
:10139000BE016F5F7F4F0E941A0E2091540321FF00
:1013A00005C028968FAD289781FF8AC02A968FADF9
:1013B0002A97813089F524962EAD3FAD24972115CB
:1013C000310531F42D968FAD2D97882341F078C0EB
:1013D0008091530390E02817390709F071C02C96CB
:1013E0008FAD2C9790E02817390709F069C02D962A
:1013F000EFAD2D9780910C01E81708F061C0F0E087
:10140000EE0FFF1FE35FFE4F80819181009709F48B
:1014100057C00E94550954C0813058F4E0915B03D5
:10142000F0915C03309709F44BC0CE010196099509
:1014300047C0823009F044C024964EAD5FAD24977A
:101440008091530390E048175907D1F52C968FAD42
:101450002C9790E04817590799F52D96EFAD2D97E9
:1014600030910C01E31760F5F0E0EE0FFF1FE35F32
:10147000FE4F80819181009719F120FF11C04091AA
:10148000550329962FAD2997421751F0383028F08F
:1014900080911B0190911C0111C080E090E00EC072
:1014A00060963FAD6097FC012781321307C02F96ED
:1014B0006EAD7FAD2F970E94630902C00E94300974
:1014C000C05BDF4F0FB6F894DEBF0FBECDBFDF911C
:1014D000CF9108951F93CF93DF93EC01162F88814E
:1014E0009981892B91F480915D03811107C08FEA66
:1014F00092E00E94CE0D81E080935D038FEA92E03E
:1015000099838883612F0E94C70D111107C08881BC
:101510009981DF91CF911F910C94C80EDF91CF91EB
:101520001F9108950F93CF93DF93CDB7DEB72A971E
:101530000FB6F894DEBF0FBECDBF8BEA8F838DEC64
:10154000888702E028E040E0BE01695F7F4FCE015E
:101550000A960E949A0D198601E020E040E0BE0143
:10156000675F7F4FCE010A960E949A0D85EB8D83AF
:1015700087E48E8302E022E040E0BE016B5F7F4F94
:10158000CE010A960E949A0D809166001B828C8380
:1015900024E040E0BE016D5F7F4FCE010A960E94BD
:1015A0009A0D8FEF89831A8226E040E0BE016F5FBB
:1015B0007F4FCE010A960E949A0D2A960FB6F89494
:1015C000DEBF0FBECDBFDF91CF910F910895EF9297
:1015D000FF920F931F93CF93DF9300D01F92CDB74D
:1015E000DEB77C0102E028E040E0BE016F5F7F4F84
:1015F000CE0103960E946C0D89818B3A19F48A8181
:101600008D3C19F0C7010E94920A10E080910C01F4
:10161000181760F4E12FF0E0EE0FFF1FE35FFE4FBD
:10162000808191810E9418091F5FF0CFF7018281AC
:101630008093A10289E992E00E94860588EA99E0F8
:101640009093A4028093A3020F900F900F90DF91CC
:10165000CF911F910F91FF90EF900895E1E5F3E096
:1016600013861286118210821186108613820895C5
:101670000895AF92BF92CF92DF92EF92FF920F93B5
:101680001F93CF93DF93DC01A95BBF4FE091590318
:10169000F0915A03662321F031852C9123272C9356
:1016A0002C91EC01C85BDF4F38813227438534270A
:1016B00038832597328532274881598143275983BA
:1016C00048832796388132274085342738832196EE
:1016D000388132274781342738832396788105E67D
:1016E00013E0A12CB12C30E07C014CE4E40EF11CA1
:1016F000A716C8F4E701488159814A0D5B1D6F01A7
:10170000C30ED11CEA015881E601488145274227D2
:10171000E80149938E013F5F3B3009F430E0DFEF91
:10172000AD1ABD0AE5CF772339F0EC01C45BDF4F7A
:1017300045E653E059834883611103C0818528271A
:101740002C93DF91CF911F910F91FF90EF90DF903D
:10175000CF90BF90AF900895CF92DF92EF92FF921B
:101760000F931F93CF93DF93FC01DB018D91EF016A
:10177000899390E0981721F02D9129939F5FFACFDC
:101780009381DF01AB5BBF4F292F22952F702C93E4
:101790006F0126E4C20ED11C9F70D6019C939481E8
:1017A00011969C9395811196292F2F772C93119642
:1017B000EF01CF5BDF4F8F010D5B1F4FBF01665BFA
:1017C0007F4FAF01455B5F4F97FF16C091E09C9341
:1017D00021813281322723273227398328832681AA
:1017E0003781322723273227E801398328839185DF
:1017F000EB01988392850EC01C92218130E03983E1
:101800002883228130E0E801398328839681EB0127
:1018100098839781EA0198839F01245B3F4FAF0132
:10182000485F5F4FE901598348832E5F3F4F8750E0
:10183000E90188838C91811110C0D6018C9181FFC0
:101840000CC061E0CF01DF91CF911F910F91FF900C
:10185000EF90DF90CF900C94390BDF91CF911F91D7
:101860000F91FF90EF90DF90CF900895CF92DF928D
:10187000EF92FF920F931F93CF93DF93CDB7DEB715
:10188000C154D1090FB6F894DEBF0FBECDBF8C0195
:10189000FC01E15BFF4F80819801225B3F4F7901A2
:1018A000E754F109D901811110C08C9190E0A80191
:1018B000445B5F4F0197D8F0DA012D913C91D9013B
:1018C000A80FB91F2C912193F5CF3C9180E090E0B7
:1018D000A801445B5F4F831750F4DA016D917C914E
:1018E000DB01A80FB91F2C9121930196F4CF680159
:1018F000B6E4CB0ED11CF601808181FF04C060E00C
:10190000C8010E94390BD7018C91895FF80180834F
:10191000EB5BFF4F8081F0E18F9FC0011124D60166
:101920009C919F70892BF8018383E95BFF4F808135
:10193000D80114968C931497329610823897808130
:10194000F8018183ED5BFF4F808112968C93129793
:1019500035968081F8018583E65BFF4F808116967E
:101960008C9331968081F801878393E0F92E81E48E
:10197000F801DE01119601900D928A95E1F72DB7DD
:101980003EB7215431090FB6F8943EBF0FBE2DBFAC
:10199000ADB7BEB7119681E4FE01319601900D926C
:1019A0008A95E1F789E992E00E9416050FB6F8944E
:1019B000DEBF0FBECDBF81110FC0FA94FF2061F0D2
:1019C0006091A10270E0660F771F072E000C880B54
:1019D000990B0E94A307CBCFCF5BDF4F0FB6F894D4
:1019E000DEBF0FBECDBFDF91CF911F910F91FF9052
:1019F000EF90DF90CF900895DF92EF92FF920F93D8
:101A00001F93CF93DF93EC01D62E7A01122F0E9401
:101A1000380BFE01EF5BFF4F11821082E1E5F3E02E
:101A20009281DE01AD5BBF4F292F30E011963C93D0
:101A30002E9312961C92119683818F708C938481C1
:101A40008F5F8483FE01E95BFF4F808331961082B4
:101A5000329690833196D082339610833297F182FA
:101A6000E082C15BDF4F0883DF91CF911F910F911F
:101A7000FF90EF90DF9008951F920F920FB60F9294
:101A800011240F900FBE0F901F9018951F920F9268
:101A90000FB60F9211248F939F93AF93BF938091B2
:101AA000A2039091A303A091A403B091A503019672
:101AB000A11DB11D8093A2039093A303A093A4033F
:101AC000B093A503BF91AF919F918F910F900FBEDF
:101AD0000F901F9018950895CF92DF92EF92FF928A
:101AE0000F931F93CF93DF9341111AC07B01F8949A
:101AF0006B0110E0C22FD0E0C61BD70B802F9601E0
:101B00002E193F092017310748F4CE018C0D9D1D79
:101B10000E94FB0EF60181936F01F0CF789401C013
:101B200080E0DF91CF911F910F91FF90EF90DF90B8
:101B3000CF900895CF92DF92EF92FF920F931F9371
:101B4000CF93DF93411119C0F8946B01E12CF12C74
:101B500010E0C22FD0E0802FE016F10660F4F6010D
:101B600061916F01CE018E0D9F1D0E94030FFFEF4B
:101B7000EF1AFF0AF0CF789401C080E0DF91CF9197
:101B80001F910F91FF90EF90DF90CF900895FC018F
:101B90006083EF55FF4F21E0208308950895EF9271
:101BA000FF920F931F93CF93DF937C018B01C09122
:101BB000A603D0E00E94720723E0CC0FDD1F2A9518
:101BC000E1F7CE0DDF1D69837A838B839C8320919F
:101BD000A603F801E85BFF4F3081822F90E0F70108
:101BE00048E0249FE00DF11D11243583D801AD5B41
:101BF000BF4F2C91268314962C912783F801E65B26
:101C0000FF4F408101969C0153E0220F331F5A95EC
:101C1000E1F7F701E20FF31F408364E170E00E94F7
:101C2000CD0E8093A603DF91CF911F910F91FF906E
:101C3000EF9008954F925F926F927F928F929F9252
:101C4000AF92BF92CF92DF92EF92FF920F931F93CA
:101C5000CF93DF93FC01EF55FF4F2081222309F43E
:101C600086C02091530330E0FB01EF5BFF4F4081C2
:101C700051814217530709F47AC04B0125E4820EC3
:101C8000911CF4013081FC012081321708F06FC0F3
:101C9000EB018C017C012C01F0EA4F0E511C3B0141
:101CA0002AE4620E711C6B0188E4C80ED11C5B0132
:101CB000E7E4AE0EB11CF7019085F301808198171F
:101CC00039F0F8E0EF0EF11C4E145F04A1F71FC0CD
:101CD000F7019581F60180819813F3CFF701978181
:101CE000F50180819813EDCF0E947207F7012181E1
:101CF000328143815481DC01CB01821B930BA40B05
:101D0000B50B803D9740A105B105D8F630C0FE0166
:101D1000ED5BFF4F8091530390E091838083F4014A
:101D200080818F5F80836091A10270E0660F771FD2
:101D3000072E000C880B990B0E94A307CE010E946E
:101D4000360C8823A1F0BE01C801DF91CF911F910D
:101D50000F91FF90EF90DF90CF90BF90AF909F904A
:101D60008F907F906F905F904F900C94CF0DDF918C
:101D7000CF911F910F91FF90EF90DF90CF90BF9088
:101D8000AF909F908F907F906F905F904F9008954D
:101D90008F559F4FFC011082089597FB072E16F474
:101DA000009407D077FD09D00E94E10E07FC05D012
:101DB0003EF4909581959F4F0895709561957F4F62
:101DC0000895AA1BBB1B51E107C0AA1FBB1FA61782
:101DD000B70710F0A61BB70B881F991F5A95A9F7D4
:101DE00080959095BC01CD010895EE0FFF1F0590E1
:101DF000F491E02D0994F999FECF92BD81BDF89A36
:101E0000992780B50895262FF999FECF1FBA92BD64
:101E100081BD20BD0FB6F894FA9AF99A0FBE0196CB
:061E20000895F894FFCFC5
:101E2600030506090E0F101112130001188B027E0E
:101E3600027102640257024A023C022F0222021574
:101E4600020802FA01EC01DE01D001C201B401A6CA
:101E56000198018A017C016E0160015201000001B6
:101E66000100000200000000010000000CD906D9A4
:021E7600060064
:00000001FF
